{
  "_format": "hh-sol-artifact-1",
  "contractName": "TiltVaultManager",
  "sourceName": "src/TiltVaultManager.sol",
  "abi": [
    {
      "inputs": [
        {
          "internalType": "address",
          "name": "_executor",
          "type": "address"
        }
      ],
      "stateMutability": "nonpayable",
      "type": "constructor"
    },
    {
      "inputs": [
        {
          "internalType": "address",
          "name": "owner",
          "type": "address"
        }
      ],
      "name": "OwnableInvalidOwner",
      "type": "error"
    },
    {
      "inputs": [
        {
          "internalType": "address",
          "name": "account",
          "type": "address"
        }
      ],
      "name": "OwnableUnauthorizedAccount",
      "type": "error"
    },
    {
      "inputs": [],
      "name": "ReentrancyGuardReentrantCall",
      "type": "error"
    },
    {
      "inputs": [
        {
          "internalType": "address",
          "name": "token",
          "type": "address"
        }
      ],
      "name": "SafeERC20FailedOperation",
      "type": "error"
    },
    {
      "anonymous": false,
      "inputs": [
        {
          "indexed": true,
          "internalType": "address",
          "name": "user",
          "type": "address"
        },
        {
          "indexed": false,
          "internalType": "uint256",
          "name": "amount",
          "type": "uint256"
        },
        {
          "indexed": false,
          "internalType": "uint256",
          "name": "timestamp",
          "type": "uint256"
        }
      ],
      "name": "AaveDeposit",
      "type": "event"
    },
    {
      "anonymous": false,
      "inputs": [
        {
          "indexed": true,
          "internalType": "address",
          "name": "user",
          "type": "address"
        },
        {
          "indexed": false,
          "internalType": "uint256",
          "name": "amount",
          "type": "uint256"
        },
        {
          "indexed": false,
          "internalType": "uint256",
          "name": "timestamp",
          "type": "uint256"
        }
      ],
      "name": "AaveWithdraw",
      "type": "event"
    },
    {
      "anonymous": false,
      "inputs": [
        {
          "indexed": true,
          "internalType": "address",
          "name": "oldExecutor",
          "type": "address"
        },
        {
          "indexed": true,
          "internalType": "address",
          "name": "newExecutor",
          "type": "address"
        }
      ],
      "name": "ExecutorUpdated",
      "type": "event"
    },
    {
      "anonymous": false,
      "inputs": [
        {
          "indexed": true,
          "internalType": "address",
          "name": "user",
          "type": "address"
        },
        {
          "indexed": false,
          "internalType": "uint256",
          "name": "amount",
          "type": "uint256"
        },
        {
          "indexed": false,
          "internalType": "uint256",
          "name": "timestamp",
          "type": "uint256"
        }
      ],
      "name": "GmxCollateralAdded",
      "type": "event"
    },
    {
      "anonymous": false,
      "inputs": [
        {
          "indexed": true,
          "internalType": "address",
          "name": "user",
          "type": "address"
        },
        {
          "indexed": false,
          "internalType": "uint256",
          "name": "amount",
          "type": "uint256"
        },
        {
          "indexed": false,
          "internalType": "uint256",
          "name": "timestamp",
          "type": "uint256"
        }
      ],
      "name": "GmxCollateralRemoved",
      "type": "event"
    },
    {
      "anonymous": false,
      "inputs": [
        {
          "indexed": true,
          "internalType": "address",
          "name": "user",
          "type": "address"
        },
        {
          "indexed": false,
          "internalType": "uint256",
          "name": "timestamp",
          "type": "uint256"
        }
      ],
      "name": "GmxPositionClosed",
      "type": "event"
    },
    {
      "anonymous": false,
      "inputs": [
        {
          "indexed": true,
          "internalType": "address",
          "name": "user",
          "type": "address"
        },
        {
          "indexed": false,
          "internalType": "uint256",
          "name": "collateral",
          "type": "uint256"
        },
        {
          "indexed": false,
          "internalType": "uint256",
          "name": "leverage",
          "type": "uint256"
        },
        {
          "indexed": false,
          "internalType": "uint256",
          "name": "timestamp",
          "type": "uint256"
        }
      ],
      "name": "GmxPositionOpened",
      "type": "event"
    },
    {
      "anonymous": false,
      "inputs": [
        {
          "indexed": true,
          "internalType": "address",
          "name": "user",
          "type": "address"
        },
        {
          "indexed": true,
          "internalType": "address",
          "name": "manager",
          "type": "address"
        },
        {
          "indexed": false,
          "internalType": "uint256",
          "name": "timestamp",
          "type": "uint256"
        }
      ],
      "name": "ManagerAuthorized",
      "type": "event"
    },
    {
      "anonymous": false,
      "inputs": [
        {
          "indexed": true,
          "internalType": "address",
          "name": "user",
          "type": "address"
        },
        {
          "indexed": true,
          "internalType": "address",
          "name": "manager",
          "type": "address"
        },
        {
          "indexed": false,
          "internalType": "uint256",
          "name": "timestamp",
          "type": "uint256"
        }
      ],
      "name": "ManagerRevoked",
      "type": "event"
    },
    {
      "anonymous": false,
      "inputs": [
        {
          "indexed": true,
          "internalType": "address",
          "name": "previousOwner",
          "type": "address"
        },
        {
          "indexed": true,
          "internalType": "address",
          "name": "newOwner",
          "type": "address"
        }
      ],
      "name": "OwnershipTransferred",
      "type": "event"
    },
    {
      "anonymous": false,
      "inputs": [
        {
          "indexed": true,
          "internalType": "address",
          "name": "user",
          "type": "address"
        },
        {
          "indexed": false,
          "internalType": "uint256",
          "name": "timestamp",
          "type": "uint256"
        }
      ],
      "name": "UserAuthorized",
      "type": "event"
    },
    {
      "anonymous": false,
      "inputs": [
        {
          "indexed": true,
          "internalType": "address",
          "name": "user",
          "type": "address"
        },
        {
          "indexed": false,
          "internalType": "uint256",
          "name": "timestamp",
          "type": "uint256"
        }
      ],
      "name": "UserRevoked",
      "type": "event"
    },
    {
      "inputs": [],
      "name": "AAVE_POOL",
      "outputs": [
        {
          "internalType": "address",
          "name": "",
          "type": "address"
        }
      ],
      "stateMutability": "view",
      "type": "function"
    },
    {
      "inputs": [],
      "name": "BTC_TOKEN",
      "outputs": [
        {
          "internalType": "address",
          "name": "",
          "type": "address"
        }
      ],
      "stateMutability": "view",
      "type": "function"
    },
    {
      "inputs": [],
      "name": "GMX_BTC_MARKET",
      "outputs": [
        {
          "internalType": "address",
          "name": "",
          "type": "address"
        }
      ],
      "stateMutability": "view",
      "type": "function"
    },
    {
      "inputs": [],
      "name": "GMX_EXCHANGE_ROUTER",
      "outputs": [
        {
          "internalType": "address",
          "name": "",
          "type": "address"
        }
      ],
      "stateMutability": "view",
      "type": "function"
    },
    {
      "inputs": [],
      "name": "GMX_ORDER_VAULT",
      "outputs": [
        {
          "internalType": "address",
          "name": "",
          "type": "address"
        }
      ],
      "stateMutability": "view",
      "type": "function"
    },
    {
      "inputs": [],
      "name": "GMX_ROUTER",
      "outputs": [
        {
          "internalType": "address",
          "name": "",
          "type": "address"
        }
      ],
      "stateMutability": "view",
      "type": "function"
    },
    {
      "inputs": [],
      "name": "USDC",
      "outputs": [
        {
          "internalType": "address",
          "name": "",
          "type": "address"
        }
      ],
      "stateMutability": "view",
      "type": "function"
    },
    {
      "inputs": [],
      "name": "WAVAX",
      "outputs": [
        {
          "internalType": "address",
          "name": "",
          "type": "address"
        }
      ],
      "stateMutability": "view",
      "type": "function"
    },
    {
      "inputs": [],
      "name": "aUSDC",
      "outputs": [
        {
          "internalType": "address",
          "name": "",
          "type": "address"
        }
      ],
      "stateMutability": "view",
      "type": "function"
    },
    {
      "inputs": [
        {
          "internalType": "address",
          "name": "user",
          "type": "address"
        },
        {
          "internalType": "uint256",
          "name": "amount",
          "type": "uint256"
        },
        {
          "internalType": "uint256",
          "name": "executionFee",
          "type": "uint256"
        }
      ],
      "name": "addGmxCollateral",
      "outputs": [],
      "stateMutability": "payable",
      "type": "function"
    },
    {
      "inputs": [],
      "name": "authorizeManager",
      "outputs": [],
      "stateMutability": "nonpayable",
      "type": "function"
    },
    {
      "inputs": [
        {
          "internalType": "address",
          "name": "manager",
          "type": "address"
        }
      ],
      "name": "authorizeSpecificManager",
      "outputs": [],
      "stateMutability": "nonpayable",
      "type": "function"
    },
    {
      "inputs": [
        {
          "internalType": "address",
          "name": "",
          "type": "address"
        },
        {
          "internalType": "address",
          "name": "",
          "type": "address"
        }
      ],
      "name": "authorizedManagers",
      "outputs": [
        {
          "internalType": "bool",
          "name": "",
          "type": "bool"
        }
      ],
      "stateMutability": "view",
      "type": "function"
    },
    {
      "inputs": [
        {
          "internalType": "address",
          "name": "user",
          "type": "address"
        }
      ],
      "name": "checkAuthorization",
      "outputs": [
        {
          "internalType": "bool",
          "name": "",
          "type": "bool"
        }
      ],
      "stateMutability": "view",
      "type": "function"
    },
    {
      "inputs": [
        {
          "internalType": "address",
          "name": "user",
          "type": "address"
        },
        {
          "internalType": "uint256",
          "name": "sizeDeltaUsd",
          "type": "uint256"
        },
        {
          "internalType": "uint256",
          "name": "executionFee",
          "type": "uint256"
        }
      ],
      "name": "closeGmxPosition",
      "outputs": [],
      "stateMutability": "payable",
      "type": "function"
    },
    {
      "inputs": [
        {
          "internalType": "address",
          "name": "user",
          "type": "address"
        },
        {
          "internalType": "uint256",
          "name": "amount",
          "type": "uint256"
        }
      ],
      "name": "depositToAave",
      "outputs": [],
      "stateMutability": "nonpayable",
      "type": "function"
    },
    {
      "inputs": [
        {
          "internalType": "address",
          "name": "token",
          "type": "address"
        },
        {
          "internalType": "address",
          "name": "to",
          "type": "address"
        },
        {
          "internalType": "uint256",
          "name": "amount",
          "type": "uint256"
        }
      ],
      "name": "emergencyWithdraw",
      "outputs": [],
      "stateMutability": "nonpayable",
      "type": "function"
    },
    {
      "inputs": [
        {
          "internalType": "address payable",
          "name": "to",
          "type": "address"
        },
        {
          "internalType": "uint256",
          "name": "amount",
          "type": "uint256"
        }
      ],
      "name": "emergencyWithdrawAvax",
      "outputs": [],
      "stateMutability": "nonpayable",
      "type": "function"
    },
    {
      "inputs": [],
      "name": "executor",
      "outputs": [
        {
          "internalType": "address",
          "name": "",
          "type": "address"
        }
      ],
      "stateMutability": "view",
      "type": "function"
    },
    {
      "inputs": [
        {
          "internalType": "address",
          "name": "user",
          "type": "address"
        }
      ],
      "name": "getUserATokenAllowance",
      "outputs": [
        {
          "internalType": "uint256",
          "name": "",
          "type": "uint256"
        }
      ],
      "stateMutability": "view",
      "type": "function"
    },
    {
      "inputs": [
        {
          "internalType": "address",
          "name": "user",
          "type": "address"
        }
      ],
      "name": "getUserAllowance",
      "outputs": [
        {
          "internalType": "uint256",
          "name": "",
          "type": "uint256"
        }
      ],
      "stateMutability": "view",
      "type": "function"
    },
    {
      "inputs": [
        {
          "internalType": "address",
          "name": "",
          "type": "address"
        }
      ],
      "name": "isAuthorized",
      "outputs": [
        {
          "internalType": "bool",
          "name": "",
          "type": "bool"
        }
      ],
      "stateMutability": "view",
      "type": "function"
    },
    {
      "inputs": [
        {
          "internalType": "address",
          "name": "user",
          "type": "address"
        },
        {
          "internalType": "address",
          "name": "manager",
          "type": "address"
        }
      ],
      "name": "isManagerAuthorized",
      "outputs": [
        {
          "internalType": "bool",
          "name": "",
          "type": "bool"
        }
      ],
      "stateMutability": "view",
      "type": "function"
    },
    {
      "inputs": [
        {
          "internalType": "address",
          "name": "user",
          "type": "address"
        },
        {
          "internalType": "uint256",
          "name": "collateralAmount",
          "type": "uint256"
        },
        {
          "internalType": "uint256",
          "name": "sizeDeltaUsd",
          "type": "uint256"
        },
        {
          "internalType": "uint256",
          "name": "executionFee",
          "type": "uint256"
        }
      ],
      "name": "openGmxPosition",
      "outputs": [],
      "stateMutability": "payable",
      "type": "function"
    },
    {
      "inputs": [],
      "name": "owner",
      "outputs": [
        {
          "internalType": "address",
          "name": "",
          "type": "address"
        }
      ],
      "stateMutability": "view",
      "type": "function"
    },
    {
      "inputs": [
        {
          "internalType": "address",
          "name": "user",
          "type": "address"
        },
        {
          "internalType": "uint256",
          "name": "amount",
          "type": "uint256"
        },
        {
          "internalType": "uint256",
          "name": "executionFee",
          "type": "uint256"
        }
      ],
      "name": "removeGmxCollateral",
      "outputs": [],
      "stateMutability": "payable",
      "type": "function"
    },
    {
      "inputs": [],
      "name": "renounceOwnership",
      "outputs": [],
      "stateMutability": "nonpayable",
      "type": "function"
    },
    {
      "inputs": [],
      "name": "revokeAccess",
      "outputs": [],
      "stateMutability": "nonpayable",
      "type": "function"
    },
    {
      "inputs": [
        {
          "internalType": "address",
          "name": "manager",
          "type": "address"
        }
      ],
      "name": "revokeSpecificManager",
      "outputs": [],
      "stateMutability": "nonpayable",
      "type": "function"
    },
    {
      "inputs": [
        {
          "internalType": "address",
          "name": "newExecutor",
          "type": "address"
        }
      ],
      "name": "setExecutor",
      "outputs": [],
      "stateMutability": "nonpayable",
      "type": "function"
    },
    {
      "inputs": [
        {
          "internalType": "address",
          "name": "newOwner",
          "type": "address"
        }
      ],
      "name": "transferOwnership",
      "outputs": [],
      "stateMutability": "nonpayable",
      "type": "function"
    },
    {
      "inputs": [
        {
          "internalType": "address",
          "name": "user",
          "type": "address"
        },
        {
          "internalType": "uint256",
          "name": "amount",
          "type": "uint256"
        }
      ],
      "name": "withdrawFromAave",
      "outputs": [],
      "stateMutability": "nonpayable",
      "type": "function"
    },
    {
      "stateMutability": "payable",
      "type": "receive"
    }
  ],
  "bytecode": "0x60806040523480156200001157600080fd5b506040516200240a3803806200240a833981016040819052620000349162000265565b600160005533806200006157604051631e4fbdf760e01b8152600060048201526024015b60405180910390fd5b6200006c8162000213565b506001600160a01b038116620000c55760405162461bcd60e51b815260206004820152601860248201527f496e76616c6964206578656375746f7220616464726573730000000000000000604482015260640162000058565b600480546001600160a01b0319166001600160a01b03831617815560405163095ea7b360e01b815273794a61358d6845594f94dc1db02a252b5b4814ad91810191909152600019602482015273b97ef9ef8734c71904d8002f8b6bc66dd9c48a6e9063095ea7b3906044016020604051808303816000875af115801562000150573d6000803e3d6000fd5b505050506040513d601f19601f8201168201806040525081019062000176919062000297565b5060405163095ea7b360e01b815273820f5ffc5b525cd4d88cd91acf2c28f16530cc686004820152600019602482015273b97ef9ef8734c71904d8002f8b6bc66dd9c48a6e9063095ea7b3906044016020604051808303816000875af1158015620001e5573d6000803e3d6000fd5b505050506040513d601f19601f820116820180604052508101906200020b919062000297565b5050620002bb565b600180546001600160a01b038381166001600160a01b0319831681179093556040519116919082907f8be0079c531659141344cd1fd0a4f28419497f9722a3daafe3b4186f6b6457e090600090a35050565b6000602082840312156200027857600080fd5b81516001600160a01b03811681146200029057600080fd5b9392505050565b600060208284031215620002aa57600080fd5b815180151581146200029057600080fd5b61213f80620002cb6000396000f3fe6080604052600436106101e75760003560e01c806389a3027111610102578063cf32739811610095578063eeb149e711610064578063eeb149e7146105cd578063f2fde38b146105ed578063f744c2a51461060d578063fe9fbb801461063557600080fd5b8063cf32739814610532578063cf740dd21461056d578063d5eb5a4c1461058d578063e63ea408146105ad57600080fd5b8063a454e328116100d1578063a454e328146104aa578063a9c3554d146104d2578063ace75e65146104f2578063c34c08e51461051257600080fd5b806389a302711461040857806389f4dd47146104305780638da5cb5b146104795780639908719d1461049757600080fd5b80634eb86f781161017a578063581e1b6b11610149578063581e1b6b14610390578063715018a6146103a357806373b295c2146103b8578063789fc9ad146103e057600080fd5b80634eb86f781461031a578063520f2f8b1461032d578063559fda3314610340578063562a97e51461036857600080fd5b80631c3c0ea8116101b65780631c3c0ea81461029d578063487ede04146102bd5780634e4c7d9b146102dd5780634e57f9c8146102f257600080fd5b8063068db003146101f357806308a016751461021557806309fbff331461025a5780630c6ddc0d1461026f57600080fd5b366101ee57005b600080fd5b3480156101ff57600080fd5b5061021361020e366004611d3d565b610665565b005b34801561022157600080fd5b5061023d73794a61358d6845594f94dc1db02a252b5b4814ad81565b6040516001600160a01b0390911681526020015b60405180910390f35b34801561026657600080fd5b5061021361075b565b34801561027b57600080fd5b5061028f61028a366004611d69565b6107b1565b604051908152602001610251565b3480156102a957600080fd5b506102136102b8366004611d69565b61083d565b3480156102c957600080fd5b506102136102d8366004611d3d565b6108ed565b3480156102e957600080fd5b50610213610b51565b3480156102fe57600080fd5b5061023d738f550e53dfe96c055d5bdb267c21f268fcaf63b281565b610213610328366004611d86565b610b9a565b61021361033b366004611d86565b610e2c565b34801561034c57600080fd5b5061023d73625e7708f30ca75bfd92586e17077590c60eb4cd81565b34801561037457600080fd5b5061023d73820f5ffc5b525cd4d88cd91acf2c28f16530cc6881565b61021361039e366004611d86565b6110e9565b3480156103af57600080fd5b5061021361138c565b3480156103c457600080fd5b5061023d73b31f66aa3c1e785363f0875a1b74e27b85fd66c781565b3480156103ec57600080fd5b5061023d73152b9d0fdc40c096757f570a51e494bd4b943e5081565b34801561041457600080fd5b5061023d73b97ef9ef8734c71904d8002f8b6bc66dd9c48a6e81565b34801561043c57600080fd5b5061046961044b366004611d69565b6001600160a01b031660009081526002602052604090205460ff1690565b6040519015158152602001610251565b34801561048557600080fd5b506001546001600160a01b031661023d565b6102136104a5366004611dbb565b6113a0565b3480156104b657600080fd5b5061023d73d3d60d22d415ad43b7e64b510d86a30f19b1b12c81565b3480156104de57600080fd5b5061028f6104ed366004611d69565b61172f565b3480156104fe57600080fd5b5061021361050d366004611d69565b611778565b34801561051e57600080fd5b5060045461023d906001600160a01b031681565b34801561053e57600080fd5b5061046961054d366004611df6565b600360209081526000928352604080842090915290825290205460ff1681565b34801561057957600080fd5b50610469610588366004611df6565b611835565b34801561059957600080fd5b506102136105a8366004611d69565b6118b8565b3480156105b957600080fd5b506102136105c8366004611e2f565b611915565b3480156105d957600080fd5b506102136105e8366004611d3d565b61197b565b3480156105f957600080fd5b50610213610608366004611d69565b611b38565b34801561061957600080fd5b5061023d73fb02132333a79c8b5bd0b64e3abcca5f7faf293781565b34801561064157600080fd5b50610469610650366004611d69565b60026020526000908152604090205460ff1681565b61066d611b76565b6001600160a01b0382166106bc5760405162461bcd60e51b8152602060048201526011602482015270125b9d985b1a59081c9958da5c1a595b9d607a1b60448201526064015b60405180910390fd5b6000826001600160a01b03168260405160006040518083038185875af1925050503d8060008114610709576040519150601f19603f3d011682016040523d82523d6000602084013e61070e565b606091505b50509050806107565760405162461bcd60e51b815260206004820152601460248201527310559056081d1c985b9cd9995c8819985a5b195960621b60448201526064016106b3565b505050565b3360008181526002602052604090819020805460ff19166001179055517f7d314cb6dee3e8038bed4127c858edc55b661dfc7b4d11d5bfbb8a6cbcabc333906107a79042815260200190565b60405180910390a2565b604051636eb1769f60e11b81526001600160a01b038216600482015230602482015260009073b97ef9ef8734c71904d8002f8b6bc66dd9c48a6e9063dd62ed3e906044015b602060405180830381865afa158015610813573d6000803e3d6000fd5b505050506040513d601f19601f820116820180604052508101906108379190611e70565b92915050565b610845611b76565b6001600160a01b03811661089b5760405162461bcd60e51b815260206004820152601860248201527f496e76616c6964206578656375746f722061646472657373000000000000000060448201526064016106b3565b600480546001600160a01b038381166001600160a01b0319831681179093556040519116919082907f0ef3c7eb9dbcf33ddf032f4cce366a07eda85eed03e3172e4a90c4cc16d5788690600090a35050565b6108f5611ba3565b6001600160a01b038216600090815260026020526040902054829060ff16801561096b57506004546001600160a01b031633148061093d57506001546001600160a01b031633145b8061096b57506001600160a01b038116600090815260036020908152604080832033845290915290205460ff165b6109875760405162461bcd60e51b81526004016106b390611e89565b600082116109a75760405162461bcd60e51b81526004016106b390611ec0565b6040516370a0823160e01b81526001600160a01b038416600482015260009073625e7708f30ca75bfd92586e17077590c60eb4cd906370a0823190602401602060405180830381865afa158015610a02573d6000803e3d6000fd5b505050506040513d601f19601f82011682018060405250810190610a269190611e70565b905060006000198414610a395783610a3b565b815b9050610a5d73625e7708f30ca75bfd92586e17077590c60eb4cd863084611bcd565b604051631a4ca37b60e21b815273b97ef9ef8734c71904d8002f8b6bc66dd9c48a6e6004820152602481018290526001600160a01b038616604482015273794a61358d6845594f94dc1db02a252b5b4814ad906369328dec906064016020604051808303816000875af1158015610ad8573d6000803e3d6000fd5b505050506040513d601f19601f82011682018060405250810190610afc9190611e70565b50604080518281524260208201526001600160a01b038716917f70da29e9195252627bf891bb6df865e89e77e5b0d0f6e7d15232ddce283f55d9910160405180910390a2505050610b4d6001600055565b5050565b3360008181526002602052604090819020805460ff19169055517f75af106136e6e9960067caef37ace95fde15a0ec63b419e1c949ea7a10c4d7ba906107a79042815260200190565b610ba2611ba3565b6001600160a01b038316600090815260026020526040902054839060ff168015610c1857506004546001600160a01b0316331480610bea57506001546001600160a01b031633145b80610c1857506001600160a01b038116600090815260036020908152604080832033845290915290205460ff165b610c345760405162461bcd60e51b81526004016106b390611e89565b81341015610c545760405162461bcd60e51b81526004016106b390611ef7565b604080516101e0810182526001600160a01b038616610100820181815261012083019190915260006101408301819052610160830181905273fb02132333a79c8b5bd0b64e3abcca5f7faf293761018084015273b97ef9ef8734c71904d8002f8b6bc66dd9c48a6e6101a0840152835181815260208101909452928291906101c0830190815250815260200160405180610100016040528087815260200160008152602001600081526020016000815260200186815260200160008152602001600081526020016000815250815260200160046007811115610d3857610d38611f2e565b81526020016000815260016020820152600060408083018290526060830182905260809092015251636996807b60e01b8152909150738f550e53dfe96c055d5bdb267c21f268fcaf63b290636996807b908590610d99908590600401612008565b60206040518083038185885af1158015610db7573d6000803e3d6000fd5b50505050506040513d601f19601f82011682018060405250810190610ddc9190611e70565b50846001600160a01b03167fb57985eb118aa66eb6e3dd6f8b62aa76a3999b727b8e48912a9242f1bb07235a42604051610e1891815260200190565b60405180910390a250506107566001600055565b610e34611ba3565b6001600160a01b038316600090815260026020526040902054839060ff168015610eaa57506004546001600160a01b0316331480610e7c57506001546001600160a01b031633145b80610eaa57506001600160a01b038116600090815260036020908152604080832033845290915290205460ff165b610ec65760405162461bcd60e51b81526004016106b390611e89565b60008311610ee65760405162461bcd60e51b81526004016106b390611ec0565b81341015610f065760405162461bcd60e51b81526004016106b390611ef7565b610f3a73b97ef9ef8734c71904d8002f8b6bc66dd9c48a6e8573d3d60d22d415ad43b7e64b510d86a30f19b1b12c86611bcd565b604080516101e0810182526001600160a01b03861661010080830182815261012084019290925260006101408401819052610160840181905273fb02132333a79c8b5bd0b64e3abcca5f7faf293761018085015273b97ef9ef8734c71904d8002f8b6bc66dd9c48a6e6101a08501528451818152602080820187526101c08601919091529284528451918201855280825281830188905281850181905260001960608301526080820187905260a0820181905260c0820181905260e0820181905291830152918101600281526020016000815260016020820152600060408083018290526060830182905260809092015251636996807b60e01b8152909150738f550e53dfe96c055d5bdb267c21f268fcaf63b290636996807b908590611065908590600401612008565b60206040518083038185885af1158015611083573d6000803e3d6000fd5b50505050506040513d601f19601f820116820180604052508101906110a89190611e70565b50604080518581524260208201526001600160a01b038716917f386d829cbebd29fc356abe4ada8a6d6c8a36e6f1e23ada4b77892f1ae6a657819101610e18565b6110f1611ba3565b6001600160a01b038316600090815260026020526040902054839060ff16801561116757506004546001600160a01b031633148061113957506001546001600160a01b031633145b8061116757506001600160a01b038116600090815260036020908152604080832033845290915290205460ff165b6111835760405162461bcd60e51b81526004016106b390611e89565b600083116111a35760405162461bcd60e51b81526004016106b390611ec0565b813410156111c35760405162461bcd60e51b81526004016106b390611ef7565b604080516101e0810182526001600160a01b038616610100820181815261012083019190915260006101408301819052610160830181905273fb02132333a79c8b5bd0b64e3abcca5f7faf293761018084015273b97ef9ef8734c71904d8002f8b6bc66dd9c48a6e6101a0840152835181815260208101909452928291906101c08301908152508152602001604051806101000160405280600081526020018781526020016000815260200160008152602001868152602001600081526020016000815260200160008152508152602001600460078111156112a7576112a7611f2e565b81526020016000815260016020820152600060408083018290526060830182905260809092015251636996807b60e01b8152909150738f550e53dfe96c055d5bdb267c21f268fcaf63b290636996807b908590611308908590600401612008565b60206040518083038185885af1158015611326573d6000803e3d6000fd5b50505050506040513d601f19601f8201168201806040525081019061134b9190611e70565b50604080518581524260208201526001600160a01b038716917fb23d7cf90fabd79fe0473a1a243147cb4da725fdd188ba3be8fd455f1db84d419101610e18565b611394611b76565b61139e6000611c34565b565b6113a8611ba3565b6001600160a01b038416600090815260026020526040902054849060ff16801561141e57506004546001600160a01b03163314806113f057506001546001600160a01b031633145b8061141e57506001600160a01b038116600090815260036020908152604080832033845290915290205460ff165b61143a5760405162461bcd60e51b81526004016106b390611e89565b600084116114945760405162461bcd60e51b815260206004820152602160248201527f436f6c6c61746572616c206d7573742062652067726561746572207468616e206044820152600360fc1b60648201526084016106b3565b600083116114e45760405162461bcd60e51b815260206004820152601b60248201527f53697a65206d7573742062652067726561746572207468616e2030000000000060448201526064016106b3565b813410156115045760405162461bcd60e51b81526004016106b390611ef7565b61152473b97ef9ef8734c71904d8002f8b6bc66dd9c48a6e863087611bcd565b61155773b97ef9ef8734c71904d8002f8b6bc66dd9c48a6e73d3d60d22d415ad43b7e64b510d86a30f19b1b12c86611c86565b604080516101e0810182526001600160a01b038716610100820181815261012083019190915260006101408301819052610160830181905273fb02132333a79c8b5bd0b64e3abcca5f7faf293761018084015273b97ef9ef8734c71904d8002f8b6bc66dd9c48a6e6101a0840152835181815260208101909452928291906101c08301528152604080516101008101825287815260208181018a9052600082840181905260001960608401526080830189905260a0830181905260c0830181905260e083015283015201600281526020016000815260016020820152600060408083018290526060830182905260809092015251636996807b60e01b8152909150738f550e53dfe96c055d5bdb267c21f268fcaf63b290636996807b908590611684908590600401612008565b60206040518083038185885af11580156116a2573d6000803e3d6000fd5b50505050506040513d601f19601f820116820180604052508101906116c79190611e70565b506001600160a01b0386167f072b20728a6560109b83b0f18c8a1b7c0e9512e9fd7292b883bd1f49f8321629866116fe81886120e7565b604080519283526020830191909152429082015260600160405180910390a250506117296001600055565b50505050565b604051636eb1769f60e11b81526001600160a01b038216600482015230602482015260009073625e7708f30ca75bfd92586e17077590c60eb4cd9063dd62ed3e906044016107f6565b6001600160a01b0381166117ce5760405162461bcd60e51b815260206004820152601760248201527f496e76616c6964206d616e61676572206164647265737300000000000000000060448201526064016106b3565b3360008181526003602090815260408083206001600160a01b03861680855290835292819020805460ff19166001179055514281529192917fa17a7b70d2ad92b43087e4d6d40b4236af16c9931dc0c42d195fafd5d057206d91015b60405180910390a350565b6001600160a01b03821660009081526002602052604081205460ff1680156118b157506004546001600160a01b038381169116148061188157506001546001600160a01b038381169116145b806118b157506001600160a01b0380841660009081526003602090815260408083209386168352929052205460ff165b9392505050565b3360008181526003602090815260408083206001600160a01b03861680855290835292819020805460ff19169055514281529192917fed5600bf19219d52eef2eb710513d9b7b4545dcc654d2a81c9cd998ac7c29c05910161182a565b61191d611b76565b6001600160a01b0382166119675760405162461bcd60e51b8152602060048201526011602482015270125b9d985b1a59081c9958da5c1a595b9d607a1b60448201526064016106b3565b6107566001600160a01b0384168383611c86565b611983611ba3565b6001600160a01b038216600090815260026020526040902054829060ff1680156119f957506004546001600160a01b03163314806119cb57506001546001600160a01b031633145b806119f957506001600160a01b038116600090815260036020908152604080832033845290915290205460ff165b611a155760405162461bcd60e51b81526004016106b390611e89565b60008211611a355760405162461bcd60e51b81526004016106b390611ec0565b611a5573b97ef9ef8734c71904d8002f8b6bc66dd9c48a6e843085611bcd565b60405163617ba03760e01b815273b97ef9ef8734c71904d8002f8b6bc66dd9c48a6e6004820152602481018390526001600160a01b03841660448201526000606482015273794a61358d6845594f94dc1db02a252b5b4814ad9063617ba03790608401600060405180830381600087803b158015611ad257600080fd5b505af1158015611ae6573d6000803e3d6000fd5b5050604080518581524260208201526001600160a01b03871693507f680ced0659081951851f602e5058366495e8d26c37f03a2059bdd7bda05b554a92500160405180910390a250610b4d6001600055565b611b40611b76565b6001600160a01b038116611b6a57604051631e4fbdf760e01b8152600060048201526024016106b3565b611b7381611c34565b50565b6001546001600160a01b0316331461139e5760405163118cdaa760e01b81523360048201526024016106b3565b600260005403611bc657604051633ee5aeb560e01b815260040160405180910390fd5b6002600055565b6040516001600160a01b0384811660248301528381166044830152606482018390526117299186918216906323b872dd906084015b604051602081830303815290604052915060e01b6020820180516001600160e01b038381831617835250505050611cb7565b600180546001600160a01b038381166001600160a01b0319831681179093556040519116919082907f8be0079c531659141344cd1fd0a4f28419497f9722a3daafe3b4186f6b6457e090600090a35050565b6040516001600160a01b0383811660248301526044820183905261075691859182169063a9059cbb90606401611c02565b600080602060008451602086016000885af180611cda576040513d6000823e3d81fd5b50506000513d91508115611cf2578060011415611cff565b6001600160a01b0384163b155b1561172957604051635274afe760e01b81526001600160a01b03851660048201526024016106b3565b6001600160a01b0381168114611b7357600080fd5b60008060408385031215611d5057600080fd5b8235611d5b81611d28565b946020939093013593505050565b600060208284031215611d7b57600080fd5b81356118b181611d28565b600080600060608486031215611d9b57600080fd5b8335611da681611d28565b95602085013595506040909401359392505050565b60008060008060808587031215611dd157600080fd5b8435611ddc81611d28565b966020860135965060408601359560600135945092505050565b60008060408385031215611e0957600080fd5b8235611e1481611d28565b91506020830135611e2481611d28565b809150509250929050565b600080600060608486031215611e4457600080fd5b8335611e4f81611d28565b92506020840135611e5f81611d28565b929592945050506040919091013590565b600060208284031215611e8257600080fd5b5051919050565b6020808252601c908201527f4e6f7420617574686f72697a656420666f722074686973207573657200000000604082015260600190565b6020808252601d908201527f416d6f756e74206d7573742062652067726561746572207468616e2030000000604082015260600190565b6020808252601a908201527f496e73756666696369656e7420657865637574696f6e20666565000000000000604082015260600190565b634e487b7160e01b600052602160045260246000fd5b600060e0830160018060a01b038084511685526020818186015116818701528160408601511660408701528160608601511660608701528160808601511660808701528160a08601511660a087015260c085015160e060c0880152838151808652610100890191508383019550600092505b80831015611fd857855185168252948301946001929092019190830190611fb6565b50979650505050505050565b60088110611ff457611ff4611f2e565b9052565b60038110611ff457611ff4611f2e565b60208152600082516101e0806020850152612027610200850183611f44565b915060208501516120846040860182805182526020810151602083015260408101516040830152606081015160608301526080810151608083015260a081015160a083015260c081015160c083015260e081015160e08301525050565b506040850151612098610140860182611fe4565b5060608501516120ac610160860182611ff8565b506080850151151561018085015260a085015115156101a085015260c085015115156101c085015260e0909401519390920192909252919050565b60008261210457634e487b7160e01b600052601260045260246000fd5b50049056fea2646970667358221220478e777959c1812667923aecefc9c0e627766719ed22a8df11a3828b08897a1b64736f6c63430008140033",
  "linkReferences": {},
  "deployedLinkReferences": {}
}