{"src/TiltVaultManager.sol":{"TiltVaultManager":{"abi":[{"inputs":[{"internalType":"address","name":"_executor","type":"address"}],"stateMutability":"nonpayable","type":"constructor"},{"inputs":[{"internalType":"address","name":"owner","type":"address"}],"name":"OwnableInvalidOwner","type":"error"},{"inputs":[{"internalType":"address","name":"account","type":"address"}],"name":"OwnableUnauthorizedAccount","type":"error"},{"inputs":[],"name":"ReentrancyGuardReentrantCall","type":"error"},{"inputs":[{"internalType":"address","name":"token","type":"address"}],"name":"SafeERC20FailedOperation","type":"error"},{"anonymous":false,"inputs":[{"indexed":true,"internalType":"address","name":"user","type":"address"},{"indexed":false,"internalType":"uint256","name":"amount","type":"uint256"},{"indexed":false,"internalType":"uint256","name":"timestamp","type":"uint256"}],"name":"AaveDeposit","type":"event"},{"anonymous":false,"inputs":[{"indexed":true,"internalType":"address","name":"user","type":"address"},{"indexed":false,"internalType":"uint256","name":"amount","type":"uint256"},{"indexed":false,"internalType":"uint256","name":"timestamp","type":"uint256"}],"name":"AaveWithdraw","type":"event"},{"anonymous":false,"inputs":[{"indexed":true,"internalType":"address","name":"oldExecutor","type":"address"},{"indexed":true,"internalType":"address","name":"newExecutor","type":"address"}],"name":"ExecutorUpdated","type":"event"},{"anonymous":false,"inputs":[{"indexed":true,"internalType":"address","name":"user","type":"address"},{"indexed":false,"internalType":"uint256","name":"amount","type":"uint256"},{"indexed":false,"internalType":"uint256","name":"timestamp","type":"uint256"}],"name":"GmxCollateralAdded","type":"event"},{"anonymous":false,"inputs":[{"indexed":true,"internalType":"address","name":"user","type":"address"},{"indexed":false,"internalType":"uint256","name":"amount","type":"uint256"},{"indexed":false,"internalType":"uint256","name":"timestamp","type":"uint256"}],"name":"GmxCollateralRemoved","type":"event"},{"anonymous":false,"inputs":[{"indexed":true,"internalType":"address","name":"user","type":"address"},{"indexed":false,"internalType":"uint256","name":"timestamp","type":"uint256"}],"name":"GmxPositionClosed","type":"event"},{"anonymous":false,"inputs":[{"indexed":true,"internalType":"address","name":"user","type":"address"},{"indexed":false,"internalType":"uint256","name":"collateral","type":"uint256"},{"indexed":false,"internalType":"uint256","name":"leverage","type":"uint256"},{"indexed":false,"internalType":"uint256","name":"timestamp","type":"uint256"}],"name":"GmxPositionOpened","type":"event"},{"anonymous":false,"inputs":[{"indexed":true,"internalType":"address","name":"user","type":"address"},{"indexed":true,"internalType":"address","name":"manager","type":"address"},{"indexed":false,"internalType":"uint256","name":"timestamp","type":"uint256"}],"name":"ManagerAuthorized","type":"event"},{"anonymous":false,"inputs":[{"indexed":true,"internalType":"address","name":"user","type":"address"},{"indexed":true,"internalType":"address","name":"manager","type":"address"},{"indexed":false,"internalType":"uint256","name":"timestamp","type":"uint256"}],"name":"ManagerRevoked","type":"event"},{"anonymous":false,"inputs":[{"indexed":true,"internalType":"address","name":"previousOwner","type":"address"},{"indexed":true,"internalType":"address","name":"newOwner","type":"address"}],"name":"OwnershipTransferred","type":"event"},{"anonymous":false,"inputs":[{"indexed":true,"internalType":"address","name":"user","type":"address"},{"indexed":false,"internalType":"uint256","name":"timestamp","type":"uint256"}],"name":"UserAuthorized","type":"event"},{"anonymous":false,"inputs":[{"indexed":true,"internalType":"address","name":"user","type":"address"},{"indexed":false,"internalType":"uint256","name":"timestamp","type":"uint256"}],"name":"UserRevoked","type":"event"},{"inputs":[],"name":"AAVE_POOL","outputs":[{"internalType":"address","name":"","type":"address"}],"stateMutability":"view","type":"function"},{"inputs":[],"name":"BTC_TOKEN","outputs":[{"internalType":"address","name":"","type":"address"}],"stateMutability":"view","type":"function"},{"inputs":[],"name":"GMX_BTC_MARKET","outputs":[{"internalType":"address","name":"","type":"address"}],"stateMutability":"view","type":"function"},{"inputs":[],"name":"GMX_EXCHANGE_ROUTER","outputs":[{"internalType":"address","name":"","type":"address"}],"stateMutability":"view","type":"function"},{"inputs":[],"name":"GMX_ORDER_VAULT","outputs":[{"internalType":"address","name":"","type":"address"}],"stateMutability":"view","type":"function"},{"inputs":[],"name":"GMX_ROUTER","outputs":[{"internalType":"address","name":"","type":"address"}],"stateMutability":"view","type":"function"},{"inputs":[],"name":"USDC","outputs":[{"internalType":"address","name":"","type":"address"}],"stateMutability":"view","type":"function"},{"inputs":[],"name":"WAVAX","outputs":[{"internalType":"address","name":"","type":"address"}],"stateMutability":"view","type":"function"},{"inputs":[],"name":"aUSDC","outputs":[{"internalType":"address","name":"","type":"address"}],"stateMutability":"view","type":"function"},{"inputs":[{"internalType":"address","name":"user","type":"address"},{"internalType":"uint256","name":"amount","type":"uint256"},{"internalType":"uint256","name":"executionFee","type":"uint256"}],"name":"addGmxCollateral","outputs":[],"stateMutability":"payable","type":"function"},{"inputs":[],"name":"authorizeManager","outputs":[],"stateMutability":"nonpayable","type":"function"},{"inputs":[{"internalType":"address","name":"manager","type":"address"}],"name":"authorizeSpecificManager","outputs":[],"stateMutability":"nonpayable","type":"function"},{"inputs":[{"internalType":"address","name":"","type":"address"},{"internalType":"address","name":"","type":"address"}],"name":"authorizedManagers","outputs":[{"internalType":"bool","name":"","type":"bool"}],"stateMutability":"view","type":"function"},{"inputs":[{"internalType":"address","name":"user","type":"address"}],"name":"checkAuthorization","outputs":[{"internalType":"bool","name":"","type":"bool"}],"stateMutability":"view","type":"function"},{"inputs":[{"internalType":"address","name":"user","type":"address"},{"internalType":"uint256","name":"sizeDeltaUsd","type":"uint256"},{"internalType":"uint256","name":"executionFee","type":"uint256"}],"name":"closeGmxPosition","outputs":[],"stateMutability":"payable","type":"function"},{"inputs":[{"internalType":"address","name":"user","type":"address"},{"internalType":"uint256","name":"amount","type":"uint256"}],"name":"depositToAave","outputs":[],"stateMutability":"nonpayable","type":"function"},{"inputs":[{"internalType":"address","name":"token","type":"address"},{"internalType":"address","name":"to","type":"address"},{"internalType":"uint256","name":"amount","type":"uint256"}],"name":"emergencyWithdraw","outputs":[],"stateMutability":"nonpayable","type":"function"},{"inputs":[{"internalType":"address payable","name":"to","type":"address"},{"internalType":"uint256","name":"amount","type":"uint256"}],"name":"emergencyWithdrawAvax","outputs":[],"stateMutability":"nonpayable","type":"function"},{"inputs":[],"name":"executor","outputs":[{"internalType":"address","name":"","type":"address"}],"stateMutability":"view","type":"function"},{"inputs":[{"internalType":"address","name":"user","type":"address"}],"name":"getUserATokenAllowance","outputs":[{"internalType":"uint256","name":"","type":"uint256"}],"stateMutability":"view","type":"function"},{"inputs":[{"internalType":"address","name":"user","type":"address"}],"name":"getUserAllowance","outputs":[{"internalType":"uint256","name":"","type":"uint256"}],"stateMutability":"view","type":"function"},{"inputs":[{"internalType":"address","name":"","type":"address"}],"name":"isAuthorized","outputs":[{"internalType":"bool","name":"","type":"bool"}],"stateMutability":"view","type":"function"},{"inputs":[{"internalType":"address","name":"user","type":"address"},{"internalType":"address","name":"manager","type":"address"}],"name":"isManagerAuthorized","outputs":[{"internalType":"bool","name":"","type":"bool"}],"stateMutability":"view","type":"function"},{"inputs":[{"internalType":"address","name":"user","type":"address"},{"internalType":"uint256","name":"collateralAmount","type":"uint256"},{"internalType":"uint256","name":"sizeDeltaUsd","type":"uint256"},{"internalType":"uint256","name":"executionFee","type":"uint256"}],"name":"openGmxPosition","outputs":[],"stateMutability":"payable","type":"function"},{"inputs":[],"name":"owner","outputs":[{"internalType":"address","name":"","type":"address"}],"stateMutability":"view","type":"function"},{"inputs":[{"internalType":"address","name":"user","type":"address"},{"internalType":"uint256","name":"amount","type":"uint256"},{"internalType":"uint256","name":"executionFee","type":"uint256"}],"name":"removeGmxCollateral","outputs":[],"stateMutability":"payable","type":"function"},{"inputs":[],"name":"renounceOwnership","outputs":[],"stateMutability":"nonpayable","type":"function"},{"inputs":[],"name":"revokeAccess","outputs":[],"stateMutability":"nonpayable","type":"function"},{"inputs":[{"internalType":"address","name":"manager","type":"address"}],"name":"revokeSpecificManager","outputs":[],"stateMutability":"nonpayable","type":"function"},{"inputs":[{"internalType":"address","name":"newExecutor","type":"address"}],"name":"setExecutor","outputs":[],"stateMutability":"nonpayable","type":"function"},{"inputs":[{"internalType":"address","name":"newOwner","type":"address"}],"name":"transferOwnership","outputs":[],"stateMutability":"nonpayable","type":"function"},{"inputs":[{"internalType":"address","name":"user","type":"address"},{"internalType":"uint256","name":"amount","type":"uint256"}],"name":"withdrawFromAave","outputs":[],"stateMutability":"nonpayable","type":"function"},{"stateMutability":"payable","type":"receive"}],"evm":{"bytecode":{"linkReferences":{},"object":"60806040523480156200001157600080fd5b506040516200240a3803806200240a833981016040819052620000349162000265565b600160005533806200006157604051631e4fbdf760e01b8152600060048201526024015b60405180910390fd5b6200006c8162000213565b506001600160a01b038116620000c55760405162461bcd60e51b815260206004820152601860248201527f496e76616c6964206578656375746f7220616464726573730000000000000000604482015260640162000058565b600480546001600160a01b0319166001600160a01b03831617815560405163095ea7b360e01b815273794a61358d6845594f94dc1db02a252b5b4814ad91810191909152600019602482015273b97ef9ef8734c71904d8002f8b6bc66dd9c48a6e9063095ea7b3906044016020604051808303816000875af115801562000150573d6000803e3d6000fd5b505050506040513d601f19601f8201168201806040525081019062000176919062000297565b5060405163095ea7b360e01b815273820f5ffc5b525cd4d88cd91acf2c28f16530cc686004820152600019602482015273b97ef9ef8734c71904d8002f8b6bc66dd9c48a6e9063095ea7b3906044016020604051808303816000875af1158015620001e5573d6000803e3d6000fd5b505050506040513d601f19601f820116820180604052508101906200020b919062000297565b5050620002bb565b600180546001600160a01b038381166001600160a01b0319831681179093556040519116919082907f8be0079c531659141344cd1fd0a4f28419497f9722a3daafe3b4186f6b6457e090600090a35050565b6000602082840312156200027857600080fd5b81516001600160a01b03811681146200029057600080fd5b9392505050565b600060208284031215620002aa57600080fd5b815180151581146200029057600080fd5b61213f80620002cb6000396000f3fe6080604052600436106101e75760003560e01c806389a3027111610102578063cf32739811610095578063eeb149e711610064578063eeb149e7146105cd578063f2fde38b146105ed578063f744c2a51461060d578063fe9fbb801461063557600080fd5b8063cf32739814610532578063cf740dd21461056d578063d5eb5a4c1461058d578063e63ea408146105ad57600080fd5b8063a454e328116100d1578063a454e328146104aa578063a9c3554d146104d2578063ace75e65146104f2578063c34c08e51461051257600080fd5b806389a302711461040857806389f4dd47146104305780638da5cb5b146104795780639908719d1461049757600080fd5b80634eb86f781161017a578063581e1b6b11610149578063581e1b6b14610390578063715018a6146103a357806373b295c2146103b8578063789fc9ad146103e057600080fd5b80634eb86f781461031a578063520f2f8b1461032d578063559fda3314610340578063562a97e51461036857600080fd5b80631c3c0ea8116101b65780631c3c0ea81461029d578063487ede04146102bd5780634e4c7d9b146102dd5780634e57f9c8146102f257600080fd5b8063068db003146101f357806308a016751461021557806309fbff331461025a5780630c6ddc0d1461026f57600080fd5b366101ee57005b600080fd5b3480156101ff57600080fd5b5061021361020e366004611d3d565b610665565b005b34801561022157600080fd5b5061023d73794a61358d6845594f94dc1db02a252b5b4814ad81565b6040516001600160a01b0390911681526020015b60405180910390f35b34801561026657600080fd5b5061021361075b565b34801561027b57600080fd5b5061028f61028a366004611d69565b6107b1565b604051908152602001610251565b3480156102a957600080fd5b506102136102b8366004611d69565b61083d565b3480156102c957600080fd5b506102136102d8366004611d3d565b6108ed565b3480156102e957600080fd5b50610213610b51565b3480156102fe57600080fd5b5061023d738f550e53dfe96c055d5bdb267c21f268fcaf63b281565b610213610328366004611d86565b610b9a565b61021361033b366004611d86565b610e2c565b34801561034c57600080fd5b5061023d73625e7708f30ca75bfd92586e17077590c60eb4cd81565b34801561037457600080fd5b5061023d73820f5ffc5b525cd4d88cd91acf2c28f16530cc6881565b61021361039e366004611d86565b6110e9565b3480156103af57600080fd5b5061021361138c565b3480156103c457600080fd5b5061023d73b31f66aa3c1e785363f0875a1b74e27b85fd66c781565b3480156103ec57600080fd5b5061023d73152b9d0fdc40c096757f570a51e494bd4b943e5081565b34801561041457600080fd5b5061023d73b97ef9ef8734c71904d8002f8b6bc66dd9c48a6e81565b34801561043c57600080fd5b5061046961044b366004611d69565b6001600160a01b031660009081526002602052604090205460ff1690565b6040519015158152602001610251565b34801561048557600080fd5b506001546001600160a01b031661023d565b6102136104a5366004611dbb565b6113a0565b3480156104b657600080fd5b5061023d73d3d60d22d415ad43b7e64b510d86a30f19b1b12c81565b3480156104de57600080fd5b5061028f6104ed366004611d69565b61172f565b3480156104fe57600080fd5b5061021361050d366004611d69565b611778565b34801561051e57600080fd5b5060045461023d906001600160a01b031681565b34801561053e57600080fd5b5061046961054d366004611df6565b600360209081526000928352604080842090915290825290205460ff1681565b34801561057957600080fd5b50610469610588366004611df6565b611835565b34801561059957600080fd5b506102136105a8366004611d69565b6118b8565b3480156105b957600080fd5b506102136105c8366004611e2f565b611915565b3480156105d957600080fd5b506102136105e8366004611d3d565b61197b565b3480156105f957600080fd5b50610213610608366004611d69565b611b38565b34801561061957600080fd5b5061023d73fb02132333a79c8b5bd0b64e3abcca5f7faf293781565b34801561064157600080fd5b50610469610650366004611d69565b60026020526000908152604090205460ff1681565b61066d611b76565b6001600160a01b0382166106bc5760405162461bcd60e51b8152602060048201526011602482015270125b9d985b1a59081c9958da5c1a595b9d607a1b60448201526064015b60405180910390fd5b6000826001600160a01b03168260405160006040518083038185875af1925050503d8060008114610709576040519150601f19603f3d011682016040523d82523d6000602084013e61070e565b606091505b50509050806107565760405162461bcd60e51b815260206004820152601460248201527310559056081d1c985b9cd9995c8819985a5b195960621b60448201526064016106b3565b505050565b3360008181526002602052604090819020805460ff19166001179055517f7d314cb6dee3e8038bed4127c858edc55b661dfc7b4d11d5bfbb8a6cbcabc333906107a79042815260200190565b60405180910390a2565b604051636eb1769f60e11b81526001600160a01b038216600482015230602482015260009073b97ef9ef8734c71904d8002f8b6bc66dd9c48a6e9063dd62ed3e906044015b602060405180830381865afa158015610813573d6000803e3d6000fd5b505050506040513d601f19601f820116820180604052508101906108379190611e70565b92915050565b610845611b76565b6001600160a01b03811661089b5760405162461bcd60e51b815260206004820152601860248201527f496e76616c6964206578656375746f722061646472657373000000000000000060448201526064016106b3565b600480546001600160a01b038381166001600160a01b0319831681179093556040519116919082907f0ef3c7eb9dbcf33ddf032f4cce366a07eda85eed03e3172e4a90c4cc16d5788690600090a35050565b6108f5611ba3565b6001600160a01b038216600090815260026020526040902054829060ff16801561096b57506004546001600160a01b031633148061093d57506001546001600160a01b031633145b8061096b57506001600160a01b038116600090815260036020908152604080832033845290915290205460ff165b6109875760405162461bcd60e51b81526004016106b390611e89565b600082116109a75760405162461bcd60e51b81526004016106b390611ec0565b6040516370a0823160e01b81526001600160a01b038416600482015260009073625e7708f30ca75bfd92586e17077590c60eb4cd906370a0823190602401602060405180830381865afa158015610a02573d6000803e3d6000fd5b505050506040513d601f19601f82011682018060405250810190610a269190611e70565b905060006000198414610a395783610a3b565b815b9050610a5d73625e7708f30ca75bfd92586e17077590c60eb4cd863084611bcd565b604051631a4ca37b60e21b815273b97ef9ef8734c71904d8002f8b6bc66dd9c48a6e6004820152602481018290526001600160a01b038616604482015273794a61358d6845594f94dc1db02a252b5b4814ad906369328dec906064016020604051808303816000875af1158015610ad8573d6000803e3d6000fd5b505050506040513d601f19601f82011682018060405250810190610afc9190611e70565b50604080518281524260208201526001600160a01b038716917f70da29e9195252627bf891bb6df865e89e77e5b0d0f6e7d15232ddce283f55d9910160405180910390a2505050610b4d6001600055565b5050565b3360008181526002602052604090819020805460ff19169055517f75af106136e6e9960067caef37ace95fde15a0ec63b419e1c949ea7a10c4d7ba906107a79042815260200190565b610ba2611ba3565b6001600160a01b038316600090815260026020526040902054839060ff168015610c1857506004546001600160a01b0316331480610bea57506001546001600160a01b031633145b80610c1857506001600160a01b038116600090815260036020908152604080832033845290915290205460ff165b610c345760405162461bcd60e51b81526004016106b390611e89565b81341015610c545760405162461bcd60e51b81526004016106b390611ef7565b604080516101e0810182526001600160a01b038616610100820181815261012083019190915260006101408301819052610160830181905273fb02132333a79c8b5bd0b64e3abcca5f7faf293761018084015273b97ef9ef8734c71904d8002f8b6bc66dd9c48a6e6101a0840152835181815260208101909452928291906101c0830190815250815260200160405180610100016040528087815260200160008152602001600081526020016000815260200186815260200160008152602001600081526020016000815250815260200160046007811115610d3857610d38611f2e565b81526020016000815260016020820152600060408083018290526060830182905260809092015251636996807b60e01b8152909150738f550e53dfe96c055d5bdb267c21f268fcaf63b290636996807b908590610d99908590600401612008565b60206040518083038185885af1158015610db7573d6000803e3d6000fd5b50505050506040513d601f19601f82011682018060405250810190610ddc9190611e70565b50846001600160a01b03167fb57985eb118aa66eb6e3dd6f8b62aa76a3999b727b8e48912a9242f1bb07235a42604051610e1891815260200190565b60405180910390a250506107566001600055565b610e34611ba3565b6001600160a01b038316600090815260026020526040902054839060ff168015610eaa57506004546001600160a01b0316331480610e7c57506001546001600160a01b031633145b80610eaa57506001600160a01b038116600090815260036020908152604080832033845290915290205460ff165b610ec65760405162461bcd60e51b81526004016106b390611e89565b60008311610ee65760405162461bcd60e51b81526004016106b390611ec0565b81341015610f065760405162461bcd60e51b81526004016106b390611ef7565b610f3a73b97ef9ef8734c71904d8002f8b6bc66dd9c48a6e8573d3d60d22d415ad43b7e64b510d86a30f19b1b12c86611bcd565b604080516101e0810182526001600160a01b03861661010080830182815261012084019290925260006101408401819052610160840181905273fb02132333a79c8b5bd0b64e3abcca5f7faf293761018085015273b97ef9ef8734c71904d8002f8b6bc66dd9c48a6e6101a08501528451818152602080820187526101c08601919091529284528451918201855280825281830188905281850181905260001960608301526080820187905260a0820181905260c0820181905260e0820181905291830152918101600281526020016000815260016020820152600060408083018290526060830182905260809092015251636996807b60e01b8152909150738f550e53dfe96c055d5bdb267c21f268fcaf63b290636996807b908590611065908590600401612008565b60206040518083038185885af1158015611083573d6000803e3d6000fd5b50505050506040513d601f19601f820116820180604052508101906110a89190611e70565b50604080518581524260208201526001600160a01b038716917f386d829cbebd29fc356abe4ada8a6d6c8a36e6f1e23ada4b77892f1ae6a657819101610e18565b6110f1611ba3565b6001600160a01b038316600090815260026020526040902054839060ff16801561116757506004546001600160a01b031633148061113957506001546001600160a01b031633145b8061116757506001600160a01b038116600090815260036020908152604080832033845290915290205460ff165b6111835760405162461bcd60e51b81526004016106b390611e89565b600083116111a35760405162461bcd60e51b81526004016106b390611ec0565b813410156111c35760405162461bcd60e51b81526004016106b390611ef7565b604080516101e0810182526001600160a01b038616610100820181815261012083019190915260006101408301819052610160830181905273fb02132333a79c8b5bd0b64e3abcca5f7faf293761018084015273b97ef9ef8734c71904d8002f8b6bc66dd9c48a6e6101a0840152835181815260208101909452928291906101c08301908152508152602001604051806101000160405280600081526020018781526020016000815260200160008152602001868152602001600081526020016000815260200160008152508152602001600460078111156112a7576112a7611f2e565b81526020016000815260016020820152600060408083018290526060830182905260809092015251636996807b60e01b8152909150738f550e53dfe96c055d5bdb267c21f268fcaf63b290636996807b908590611308908590600401612008565b60206040518083038185885af1158015611326573d6000803e3d6000fd5b50505050506040513d601f19601f8201168201806040525081019061134b9190611e70565b50604080518581524260208201526001600160a01b038716917fb23d7cf90fabd79fe0473a1a243147cb4da725fdd188ba3be8fd455f1db84d419101610e18565b611394611b76565b61139e6000611c34565b565b6113a8611ba3565b6001600160a01b038416600090815260026020526040902054849060ff16801561141e57506004546001600160a01b03163314806113f057506001546001600160a01b031633145b8061141e57506001600160a01b038116600090815260036020908152604080832033845290915290205460ff165b61143a5760405162461bcd60e51b81526004016106b390611e89565b600084116114945760405162461bcd60e51b815260206004820152602160248201527f436f6c6c61746572616c206d7573742062652067726561746572207468616e206044820152600360fc1b60648201526084016106b3565b600083116114e45760405162461bcd60e51b815260206004820152601b60248201527f53697a65206d7573742062652067726561746572207468616e2030000000000060448201526064016106b3565b813410156115045760405162461bcd60e51b81526004016106b390611ef7565b61152473b97ef9ef8734c71904d8002f8b6bc66dd9c48a6e863087611bcd565b61155773b97ef9ef8734c71904d8002f8b6bc66dd9c48a6e73d3d60d22d415ad43b7e64b510d86a30f19b1b12c86611c86565b604080516101e0810182526001600160a01b038716610100820181815261012083019190915260006101408301819052610160830181905273fb02132333a79c8b5bd0b64e3abcca5f7faf293761018084015273b97ef9ef8734c71904d8002f8b6bc66dd9c48a6e6101a0840152835181815260208101909452928291906101c08301528152604080516101008101825287815260208181018a9052600082840181905260001960608401526080830189905260a0830181905260c0830181905260e083015283015201600281526020016000815260016020820152600060408083018290526060830182905260809092015251636996807b60e01b8152909150738f550e53dfe96c055d5bdb267c21f268fcaf63b290636996807b908590611684908590600401612008565b60206040518083038185885af11580156116a2573d6000803e3d6000fd5b50505050506040513d601f19601f820116820180604052508101906116c79190611e70565b506001600160a01b0386167f072b20728a6560109b83b0f18c8a1b7c0e9512e9fd7292b883bd1f49f8321629866116fe81886120e7565b604080519283526020830191909152429082015260600160405180910390a250506117296001600055565b50505050565b604051636eb1769f60e11b81526001600160a01b038216600482015230602482015260009073625e7708f30ca75bfd92586e17077590c60eb4cd9063dd62ed3e906044016107f6565b6001600160a01b0381166117ce5760405162461bcd60e51b815260206004820152601760248201527f496e76616c6964206d616e61676572206164647265737300000000000000000060448201526064016106b3565b3360008181526003602090815260408083206001600160a01b03861680855290835292819020805460ff19166001179055514281529192917fa17a7b70d2ad92b43087e4d6d40b4236af16c9931dc0c42d195fafd5d057206d91015b60405180910390a350565b6001600160a01b03821660009081526002602052604081205460ff1680156118b157506004546001600160a01b038381169116148061188157506001546001600160a01b038381169116145b806118b157506001600160a01b0380841660009081526003602090815260408083209386168352929052205460ff165b9392505050565b3360008181526003602090815260408083206001600160a01b03861680855290835292819020805460ff19169055514281529192917fed5600bf19219d52eef2eb710513d9b7b4545dcc654d2a81c9cd998ac7c29c05910161182a565b61191d611b76565b6001600160a01b0382166119675760405162461bcd60e51b8152602060048201526011602482015270125b9d985b1a59081c9958da5c1a595b9d607a1b60448201526064016106b3565b6107566001600160a01b0384168383611c86565b611983611ba3565b6001600160a01b038216600090815260026020526040902054829060ff1680156119f957506004546001600160a01b03163314806119cb57506001546001600160a01b031633145b806119f957506001600160a01b038116600090815260036020908152604080832033845290915290205460ff165b611a155760405162461bcd60e51b81526004016106b390611e89565b60008211611a355760405162461bcd60e51b81526004016106b390611ec0565b611a5573b97ef9ef8734c71904d8002f8b6bc66dd9c48a6e843085611bcd565b60405163617ba03760e01b815273b97ef9ef8734c71904d8002f8b6bc66dd9c48a6e6004820152602481018390526001600160a01b03841660448201526000606482015273794a61358d6845594f94dc1db02a252b5b4814ad9063617ba03790608401600060405180830381600087803b158015611ad257600080fd5b505af1158015611ae6573d6000803e3d6000fd5b5050604080518581524260208201526001600160a01b03871693507f680ced0659081951851f602e5058366495e8d26c37f03a2059bdd7bda05b554a92500160405180910390a250610b4d6001600055565b611b40611b76565b6001600160a01b038116611b6a57604051631e4fbdf760e01b8152600060048201526024016106b3565b611b7381611c34565b50565b6001546001600160a01b0316331461139e5760405163118cdaa760e01b81523360048201526024016106b3565b600260005403611bc657604051633ee5aeb560e01b815260040160405180910390fd5b6002600055565b6040516001600160a01b0384811660248301528381166044830152606482018390526117299186918216906323b872dd906084015b604051602081830303815290604052915060e01b6020820180516001600160e01b038381831617835250505050611cb7565b600180546001600160a01b038381166001600160a01b0319831681179093556040519116919082907f8be0079c531659141344cd1fd0a4f28419497f9722a3daafe3b4186f6b6457e090600090a35050565b6040516001600160a01b0383811660248301526044820183905261075691859182169063a9059cbb90606401611c02565b600080602060008451602086016000885af180611cda576040513d6000823e3d81fd5b50506000513d91508115611cf2578060011415611cff565b6001600160a01b0384163b155b1561172957604051635274afe760e01b81526001600160a01b03851660048201526024016106b3565b6001600160a01b0381168114611b7357600080fd5b60008060408385031215611d5057600080fd5b8235611d5b81611d28565b946020939093013593505050565b600060208284031215611d7b57600080fd5b81356118b181611d28565b600080600060608486031215611d9b57600080fd5b8335611da681611d28565b95602085013595506040909401359392505050565b60008060008060808587031215611dd157600080fd5b8435611ddc81611d28565b966020860135965060408601359560600135945092505050565b60008060408385031215611e0957600080fd5b8235611e1481611d28565b91506020830135611e2481611d28565b809150509250929050565b600080600060608486031215611e4457600080fd5b8335611e4f81611d28565b92506020840135611e5f81611d28565b929592945050506040919091013590565b600060208284031215611e8257600080fd5b5051919050565b6020808252601c908201527f4e6f7420617574686f72697a656420666f722074686973207573657200000000604082015260600190565b6020808252601d908201527f416d6f756e74206d7573742062652067726561746572207468616e2030000000604082015260600190565b6020808252601a908201527f496e73756666696369656e7420657865637574696f6e20666565000000000000604082015260600190565b634e487b7160e01b600052602160045260246000fd5b600060e0830160018060a01b038084511685526020818186015116818701528160408601511660408701528160608601511660608701528160808601511660808701528160a08601511660a087015260c085015160e060c0880152838151808652610100890191508383019550600092505b80831015611fd857855185168252948301946001929092019190830190611fb6565b50979650505050505050565b60088110611ff457611ff4611f2e565b9052565b60038110611ff457611ff4611f2e565b60208152600082516101e0806020850152612027610200850183611f44565b915060208501516120846040860182805182526020810151602083015260408101516040830152606081015160608301526080810151608083015260a081015160a083015260c081015160c083015260e081015160e08301525050565b506040850151612098610140860182611fe4565b5060608501516120ac610160860182611ff8565b506080850151151561018085015260a085015115156101a085015260c085015115156101c085015260e0909401519390920192909252919050565b60008261210457634e487b7160e01b600052601260045260246000fd5b50049056fea2646970667358221220478e777959c1812667923aecefc9c0e627766719ed22a8df11a3828b08897a1b64736f6c63430008140033","opcodes":"PUSH1 0x80 PUSH1 0x40 MSTORE CALLVALUE DUP1 ISZERO PUSH3 0x11 JUMPI PUSH1 0x0 DUP1 REVERT JUMPDEST POP PUSH1 0x40 MLOAD PUSH3 0x240A CODESIZE SUB DUP1 PUSH3 0x240A DUP4 CODECOPY DUP2 ADD PUSH1 0x40 DUP2 SWAP1 MSTORE PUSH3 0x34 SWAP2 PUSH3 0x265 JUMP JUMPDEST PUSH1 0x1 PUSH1 0x0 SSTORE CALLER DUP1 PUSH3 0x61 JUMPI PUSH1 0x40 MLOAD PUSH4 0x1E4FBDF7 PUSH1 0xE0 SHL DUP2 MSTORE PUSH1 0x0 PUSH1 0x4 DUP3 ADD MSTORE PUSH1 0x24 ADD JUMPDEST PUSH1 0x40 MLOAD DUP1 SWAP2 SUB SWAP1 REVERT JUMPDEST PUSH3 0x6C DUP2 PUSH3 0x213 JUMP JUMPDEST POP PUSH1 0x1 PUSH1 0x1 PUSH1 0xA0 SHL SUB DUP2 AND PUSH3 0xC5 JUMPI PUSH1 0x40 MLOAD PUSH3 0x461BCD PUSH1 0xE5 SHL DUP2 MSTORE PUSH1 0x20 PUSH1 0x4 DUP3 ADD MSTORE PUSH1 0x18 PUSH1 0x24 DUP3 ADD MSTORE PUSH32 0x496E76616C6964206578656375746F7220616464726573730000000000000000 PUSH1 0x44 DUP3 ADD MSTORE PUSH1 0x64 ADD PUSH3 0x58 JUMP JUMPDEST PUSH1 0x4 DUP1 SLOAD PUSH1 0x1 PUSH1 0x1 PUSH1 0xA0 SHL SUB NOT AND PUSH1 0x1 PUSH1 0x1 PUSH1 0xA0 SHL SUB DUP4 AND OR DUP2 SSTORE PUSH1 0x40 MLOAD PUSH4 0x95EA7B3 PUSH1 0xE0 SHL DUP2 MSTORE PUSH20 0x794A61358D6845594F94DC1DB02A252B5B4814AD SWAP2 DUP2 ADD SWAP2 SWAP1 SWAP2 MSTORE PUSH1 0x0 NOT PUSH1 0x24 DUP3 ADD MSTORE PUSH20 0xB97EF9EF8734C71904D8002F8B6BC66DD9C48A6E SWAP1 PUSH4 0x95EA7B3 SWAP1 PUSH1 0x44 ADD PUSH1 0x20 PUSH1 0x40 MLOAD DUP1 DUP4 SUB DUP2 PUSH1 0x0 DUP8 GAS CALL ISZERO DUP1 ISZERO PUSH3 0x150 JUMPI RETURNDATASIZE PUSH1 0x0 DUP1 RETURNDATACOPY RETURNDATASIZE PUSH1 0x0 REVERT JUMPDEST POP POP POP POP PUSH1 0x40 MLOAD RETURNDATASIZE PUSH1 0x1F NOT PUSH1 0x1F DUP3 ADD AND DUP3 ADD DUP1 PUSH1 0x40 MSTORE POP DUP2 ADD SWAP1 PUSH3 0x176 SWAP2 SWAP1 PUSH3 0x297 JUMP JUMPDEST POP PUSH1 0x40 MLOAD PUSH4 0x95EA7B3 PUSH1 0xE0 SHL DUP2 MSTORE PUSH20 0x820F5FFC5B525CD4D88CD91ACF2C28F16530CC68 PUSH1 0x4 DUP3 ADD MSTORE PUSH1 0x0 NOT PUSH1 0x24 DUP3 ADD MSTORE PUSH20 0xB97EF9EF8734C71904D8002F8B6BC66DD9C48A6E SWAP1 PUSH4 0x95EA7B3 SWAP1 PUSH1 0x44 ADD PUSH1 0x20 PUSH1 0x40 MLOAD DUP1 DUP4 SUB DUP2 PUSH1 0x0 DUP8 GAS CALL ISZERO DUP1 ISZERO PUSH3 0x1E5 JUMPI RETURNDATASIZE PUSH1 0x0 DUP1 RETURNDATACOPY RETURNDATASIZE PUSH1 0x0 REVERT JUMPDEST POP POP POP POP PUSH1 0x40 MLOAD RETURNDATASIZE PUSH1 0x1F NOT PUSH1 0x1F DUP3 ADD AND DUP3 ADD DUP1 PUSH1 0x40 MSTORE POP DUP2 ADD SWAP1 PUSH3 0x20B SWAP2 SWAP1 PUSH3 0x297 JUMP JUMPDEST POP POP PUSH3 0x2BB JUMP JUMPDEST PUSH1 0x1 DUP1 SLOAD PUSH1 0x1 PUSH1 0x1 PUSH1 0xA0 SHL SUB DUP4 DUP2 AND PUSH1 0x1 PUSH1 0x1 PUSH1 0xA0 SHL SUB NOT DUP4 AND DUP2 OR SWAP1 SWAP4 SSTORE PUSH1 0x40 MLOAD SWAP2 AND SWAP2 SWAP1 DUP3 SWAP1 PUSH32 0x8BE0079C531659141344CD1FD0A4F28419497F9722A3DAAFE3B4186F6B6457E0 SWAP1 PUSH1 0x0 SWAP1 LOG3 POP POP JUMP JUMPDEST PUSH1 0x0 PUSH1 0x20 DUP3 DUP5 SUB SLT ISZERO PUSH3 0x278 JUMPI PUSH1 0x0 DUP1 REVERT JUMPDEST DUP2 MLOAD PUSH1 0x1 PUSH1 0x1 PUSH1 0xA0 SHL SUB DUP2 AND DUP2 EQ PUSH3 0x290 JUMPI PUSH1 0x0 DUP1 REVERT JUMPDEST SWAP4 SWAP3 POP POP POP JUMP JUMPDEST PUSH1 0x0 PUSH1 0x20 DUP3 DUP5 SUB SLT ISZERO PUSH3 0x2AA JUMPI PUSH1 0x0 DUP1 REVERT JUMPDEST DUP2 MLOAD DUP1 ISZERO ISZERO DUP2 EQ PUSH3 0x290 JUMPI PUSH1 0x0 DUP1 REVERT JUMPDEST PUSH2 0x213F DUP1 PUSH3 0x2CB PUSH1 0x0 CODECOPY PUSH1 0x0 RETURN INVALID PUSH1 0x80 PUSH1 0x40 MSTORE PUSH1 0x4 CALLDATASIZE LT PUSH2 0x1E7 JUMPI PUSH1 0x0 CALLDATALOAD PUSH1 0xE0 SHR DUP1 PUSH4 0x89A30271 GT PUSH2 0x102 JUMPI DUP1 PUSH4 0xCF327398 GT PUSH2 0x95 JUMPI DUP1 PUSH4 0xEEB149E7 GT PUSH2 0x64 JUMPI DUP1 PUSH4 0xEEB149E7 EQ PUSH2 0x5CD JUMPI DUP1 PUSH4 0xF2FDE38B EQ PUSH2 0x5ED JUMPI DUP1 PUSH4 0xF744C2A5 EQ PUSH2 0x60D JUMPI DUP1 PUSH4 0xFE9FBB80 EQ PUSH2 0x635 JUMPI PUSH1 0x0 DUP1 REVERT JUMPDEST DUP1 PUSH4 0xCF327398 EQ PUSH2 0x532 JUMPI DUP1 PUSH4 0xCF740DD2 EQ PUSH2 0x56D JUMPI DUP1 PUSH4 0xD5EB5A4C EQ PUSH2 0x58D JUMPI DUP1 PUSH4 0xE63EA408 EQ PUSH2 0x5AD JUMPI PUSH1 0x0 DUP1 REVERT JUMPDEST DUP1 PUSH4 0xA454E328 GT PUSH2 0xD1 JUMPI DUP1 PUSH4 0xA454E328 EQ PUSH2 0x4AA JUMPI DUP1 PUSH4 0xA9C3554D EQ PUSH2 0x4D2 JUMPI DUP1 PUSH4 0xACE75E65 EQ PUSH2 0x4F2 JUMPI DUP1 PUSH4 0xC34C08E5 EQ PUSH2 0x512 JUMPI PUSH1 0x0 DUP1 REVERT JUMPDEST DUP1 PUSH4 0x89A30271 EQ PUSH2 0x408 JUMPI DUP1 PUSH4 0x89F4DD47 EQ PUSH2 0x430 JUMPI DUP1 PUSH4 0x8DA5CB5B EQ PUSH2 0x479 JUMPI DUP1 PUSH4 0x9908719D EQ PUSH2 0x497 JUMPI PUSH1 0x0 DUP1 REVERT JUMPDEST DUP1 PUSH4 0x4EB86F78 GT PUSH2 0x17A JUMPI DUP1 PUSH4 0x581E1B6B GT PUSH2 0x149 JUMPI DUP1 PUSH4 0x581E1B6B EQ PUSH2 0x390 JUMPI DUP1 PUSH4 0x715018A6 EQ PUSH2 0x3A3 JUMPI DUP1 PUSH4 0x73B295C2 EQ PUSH2 0x3B8 JUMPI DUP1 PUSH4 0x789FC9AD EQ PUSH2 0x3E0 JUMPI PUSH1 0x0 DUP1 REVERT JUMPDEST DUP1 PUSH4 0x4EB86F78 EQ PUSH2 0x31A JUMPI DUP1 PUSH4 0x520F2F8B EQ PUSH2 0x32D JUMPI DUP1 PUSH4 0x559FDA33 EQ PUSH2 0x340 JUMPI DUP1 PUSH4 0x562A97E5 EQ PUSH2 0x368 JUMPI PUSH1 0x0 DUP1 REVERT JUMPDEST DUP1 PUSH4 0x1C3C0EA8 GT PUSH2 0x1B6 JUMPI DUP1 PUSH4 0x1C3C0EA8 EQ PUSH2 0x29D JUMPI DUP1 PUSH4 0x487EDE04 EQ PUSH2 0x2BD JUMPI DUP1 PUSH4 0x4E4C7D9B EQ PUSH2 0x2DD JUMPI DUP1 PUSH4 0x4E57F9C8 EQ PUSH2 0x2F2 JUMPI PUSH1 0x0 DUP1 REVERT JUMPDEST DUP1 PUSH4 0x68DB003 EQ PUSH2 0x1F3 JUMPI DUP1 PUSH4 0x8A01675 EQ PUSH2 0x215 JUMPI DUP1 PUSH4 0x9FBFF33 EQ PUSH2 0x25A JUMPI DUP1 PUSH4 0xC6DDC0D EQ PUSH2 0x26F JUMPI PUSH1 0x0 DUP1 REVERT JUMPDEST CALLDATASIZE PUSH2 0x1EE JUMPI STOP JUMPDEST PUSH1 0x0 DUP1 REVERT JUMPDEST CALLVALUE DUP1 ISZERO PUSH2 0x1FF JUMPI PUSH1 0x0 DUP1 REVERT JUMPDEST POP PUSH2 0x213 PUSH2 0x20E CALLDATASIZE PUSH1 0x4 PUSH2 0x1D3D JUMP JUMPDEST PUSH2 0x665 JUMP JUMPDEST STOP JUMPDEST CALLVALUE DUP1 ISZERO PUSH2 0x221 JUMPI PUSH1 0x0 DUP1 REVERT JUMPDEST POP PUSH2 0x23D PUSH20 0x794A61358D6845594F94DC1DB02A252B5B4814AD DUP2 JUMP JUMPDEST PUSH1 0x40 MLOAD PUSH1 0x1 PUSH1 0x1 PUSH1 0xA0 SHL SUB SWAP1 SWAP2 AND DUP2 MSTORE PUSH1 0x20 ADD JUMPDEST PUSH1 0x40 MLOAD DUP1 SWAP2 SUB SWAP1 RETURN JUMPDEST CALLVALUE DUP1 ISZERO PUSH2 0x266 JUMPI PUSH1 0x0 DUP1 REVERT JUMPDEST POP PUSH2 0x213 PUSH2 0x75B JUMP JUMPDEST CALLVALUE DUP1 ISZERO PUSH2 0x27B JUMPI PUSH1 0x0 DUP1 REVERT JUMPDEST POP PUSH2 0x28F PUSH2 0x28A CALLDATASIZE PUSH1 0x4 PUSH2 0x1D69 JUMP JUMPDEST PUSH2 0x7B1 JUMP JUMPDEST PUSH1 0x40 MLOAD SWAP1 DUP2 MSTORE PUSH1 0x20 ADD PUSH2 0x251 JUMP JUMPDEST CALLVALUE DUP1 ISZERO PUSH2 0x2A9 JUMPI PUSH1 0x0 DUP1 REVERT JUMPDEST POP PUSH2 0x213 PUSH2 0x2B8 CALLDATASIZE PUSH1 0x4 PUSH2 0x1D69 JUMP JUMPDEST PUSH2 0x83D JUMP JUMPDEST CALLVALUE DUP1 ISZERO PUSH2 0x2C9 JUMPI PUSH1 0x0 DUP1 REVERT JUMPDEST POP PUSH2 0x213 PUSH2 0x2D8 CALLDATASIZE PUSH1 0x4 PUSH2 0x1D3D JUMP JUMPDEST PUSH2 0x8ED JUMP JUMPDEST CALLVALUE DUP1 ISZERO PUSH2 0x2E9 JUMPI PUSH1 0x0 DUP1 REVERT JUMPDEST POP PUSH2 0x213 PUSH2 0xB51 JUMP JUMPDEST CALLVALUE DUP1 ISZERO PUSH2 0x2FE JUMPI PUSH1 0x0 DUP1 REVERT JUMPDEST POP PUSH2 0x23D PUSH20 0x8F550E53DFE96C055D5BDB267C21F268FCAF63B2 DUP2 JUMP JUMPDEST PUSH2 0x213 PUSH2 0x328 CALLDATASIZE PUSH1 0x4 PUSH2 0x1D86 JUMP JUMPDEST PUSH2 0xB9A JUMP JUMPDEST PUSH2 0x213 PUSH2 0x33B CALLDATASIZE PUSH1 0x4 PUSH2 0x1D86 JUMP JUMPDEST PUSH2 0xE2C JUMP JUMPDEST CALLVALUE DUP1 ISZERO PUSH2 0x34C JUMPI PUSH1 0x0 DUP1 REVERT JUMPDEST POP PUSH2 0x23D PUSH20 0x625E7708F30CA75BFD92586E17077590C60EB4CD DUP2 JUMP JUMPDEST CALLVALUE DUP1 ISZERO PUSH2 0x374 JUMPI PUSH1 0x0 DUP1 REVERT JUMPDEST POP PUSH2 0x23D PUSH20 0x820F5FFC5B525CD4D88CD91ACF2C28F16530CC68 DUP2 JUMP JUMPDEST PUSH2 0x213 PUSH2 0x39E CALLDATASIZE PUSH1 0x4 PUSH2 0x1D86 JUMP JUMPDEST PUSH2 0x10E9 JUMP JUMPDEST CALLVALUE DUP1 ISZERO PUSH2 0x3AF JUMPI PUSH1 0x0 DUP1 REVERT JUMPDEST POP PUSH2 0x213 PUSH2 0x138C JUMP JUMPDEST CALLVALUE DUP1 ISZERO PUSH2 0x3C4 JUMPI PUSH1 0x0 DUP1 REVERT JUMPDEST POP PUSH2 0x23D PUSH20 0xB31F66AA3C1E785363F0875A1B74E27B85FD66C7 DUP2 JUMP JUMPDEST CALLVALUE DUP1 ISZERO PUSH2 0x3EC JUMPI PUSH1 0x0 DUP1 REVERT JUMPDEST POP PUSH2 0x23D PUSH20 0x152B9D0FDC40C096757F570A51E494BD4B943E50 DUP2 JUMP JUMPDEST CALLVALUE DUP1 ISZERO PUSH2 0x414 JUMPI PUSH1 0x0 DUP1 REVERT JUMPDEST POP PUSH2 0x23D PUSH20 0xB97EF9EF8734C71904D8002F8B6BC66DD9C48A6E DUP2 JUMP JUMPDEST CALLVALUE DUP1 ISZERO PUSH2 0x43C JUMPI PUSH1 0x0 DUP1 REVERT JUMPDEST POP PUSH2 0x469 PUSH2 0x44B CALLDATASIZE PUSH1 0x4 PUSH2 0x1D69 JUMP JUMPDEST PUSH1 0x1 PUSH1 0x1 PUSH1 0xA0 SHL SUB AND PUSH1 0x0 SWAP1 DUP2 MSTORE PUSH1 0x2 PUSH1 0x20 MSTORE PUSH1 0x40 SWAP1 KECCAK256 SLOAD PUSH1 0xFF AND SWAP1 JUMP JUMPDEST PUSH1 0x40 MLOAD SWAP1 ISZERO ISZERO DUP2 MSTORE PUSH1 0x20 ADD PUSH2 0x251 JUMP JUMPDEST CALLVALUE DUP1 ISZERO PUSH2 0x485 JUMPI PUSH1 0x0 DUP1 REVERT JUMPDEST POP PUSH1 0x1 SLOAD PUSH1 0x1 PUSH1 0x1 PUSH1 0xA0 SHL SUB AND PUSH2 0x23D JUMP JUMPDEST PUSH2 0x213 PUSH2 0x4A5 CALLDATASIZE PUSH1 0x4 PUSH2 0x1DBB JUMP JUMPDEST PUSH2 0x13A0 JUMP JUMPDEST CALLVALUE DUP1 ISZERO PUSH2 0x4B6 JUMPI PUSH1 0x0 DUP1 REVERT JUMPDEST POP PUSH2 0x23D PUSH20 0xD3D60D22D415AD43B7E64B510D86A30F19B1B12C DUP2 JUMP JUMPDEST CALLVALUE DUP1 ISZERO PUSH2 0x4DE JUMPI PUSH1 0x0 DUP1 REVERT JUMPDEST POP PUSH2 0x28F PUSH2 0x4ED CALLDATASIZE PUSH1 0x4 PUSH2 0x1D69 JUMP JUMPDEST PUSH2 0x172F JUMP JUMPDEST CALLVALUE DUP1 ISZERO PUSH2 0x4FE JUMPI PUSH1 0x0 DUP1 REVERT JUMPDEST POP PUSH2 0x213 PUSH2 0x50D CALLDATASIZE PUSH1 0x4 PUSH2 0x1D69 JUMP JUMPDEST PUSH2 0x1778 JUMP JUMPDEST CALLVALUE DUP1 ISZERO PUSH2 0x51E JUMPI PUSH1 0x0 DUP1 REVERT JUMPDEST POP PUSH1 0x4 SLOAD PUSH2 0x23D SWAP1 PUSH1 0x1 PUSH1 0x1 PUSH1 0xA0 SHL SUB AND DUP2 JUMP JUMPDEST CALLVALUE DUP1 ISZERO PUSH2 0x53E JUMPI PUSH1 0x0 DUP1 REVERT JUMPDEST POP PUSH2 0x469 PUSH2 0x54D CALLDATASIZE PUSH1 0x4 PUSH2 0x1DF6 JUMP JUMPDEST PUSH1 0x3 PUSH1 0x20 SWAP1 DUP2 MSTORE PUSH1 0x0 SWAP3 DUP4 MSTORE PUSH1 0x40 DUP1 DUP5 KECCAK256 SWAP1 SWAP2 MSTORE SWAP1 DUP3 MSTORE SWAP1 KECCAK256 SLOAD PUSH1 0xFF AND DUP2 JUMP JUMPDEST CALLVALUE DUP1 ISZERO PUSH2 0x579 JUMPI PUSH1 0x0 DUP1 REVERT JUMPDEST POP PUSH2 0x469 PUSH2 0x588 CALLDATASIZE PUSH1 0x4 PUSH2 0x1DF6 JUMP JUMPDEST PUSH2 0x1835 JUMP JUMPDEST CALLVALUE DUP1 ISZERO PUSH2 0x599 JUMPI PUSH1 0x0 DUP1 REVERT JUMPDEST POP PUSH2 0x213 PUSH2 0x5A8 CALLDATASIZE PUSH1 0x4 PUSH2 0x1D69 JUMP JUMPDEST PUSH2 0x18B8 JUMP JUMPDEST CALLVALUE DUP1 ISZERO PUSH2 0x5B9 JUMPI PUSH1 0x0 DUP1 REVERT JUMPDEST POP PUSH2 0x213 PUSH2 0x5C8 CALLDATASIZE PUSH1 0x4 PUSH2 0x1E2F JUMP JUMPDEST PUSH2 0x1915 JUMP JUMPDEST CALLVALUE DUP1 ISZERO PUSH2 0x5D9 JUMPI PUSH1 0x0 DUP1 REVERT JUMPDEST POP PUSH2 0x213 PUSH2 0x5E8 CALLDATASIZE PUSH1 0x4 PUSH2 0x1D3D JUMP JUMPDEST PUSH2 0x197B JUMP JUMPDEST CALLVALUE DUP1 ISZERO PUSH2 0x5F9 JUMPI PUSH1 0x0 DUP1 REVERT JUMPDEST POP PUSH2 0x213 PUSH2 0x608 CALLDATASIZE PUSH1 0x4 PUSH2 0x1D69 JUMP JUMPDEST PUSH2 0x1B38 JUMP JUMPDEST CALLVALUE DUP1 ISZERO PUSH2 0x619 JUMPI PUSH1 0x0 DUP1 REVERT JUMPDEST POP PUSH2 0x23D PUSH20 0xFB02132333A79C8B5BD0B64E3ABCCA5F7FAF2937 DUP2 JUMP JUMPDEST CALLVALUE DUP1 ISZERO PUSH2 0x641 JUMPI PUSH1 0x0 DUP1 REVERT JUMPDEST POP PUSH2 0x469 PUSH2 0x650 CALLDATASIZE PUSH1 0x4 PUSH2 0x1D69 JUMP JUMPDEST PUSH1 0x2 PUSH1 0x20 MSTORE PUSH1 0x0 SWAP1 DUP2 MSTORE PUSH1 0x40 SWAP1 KECCAK256 SLOAD PUSH1 0xFF AND DUP2 JUMP JUMPDEST PUSH2 0x66D PUSH2 0x1B76 JUMP JUMPDEST PUSH1 0x1 PUSH1 0x1 PUSH1 0xA0 SHL SUB DUP3 AND PUSH2 0x6BC JUMPI PUSH1 0x40 MLOAD PUSH3 0x461BCD PUSH1 0xE5 SHL DUP2 MSTORE PUSH1 0x20 PUSH1 0x4 DUP3 ADD MSTORE PUSH1 0x11 PUSH1 0x24 DUP3 ADD MSTORE PUSH17 0x125B9D985B1A59081C9958DA5C1A595B9D PUSH1 0x7A SHL PUSH1 0x44 DUP3 ADD MSTORE PUSH1 0x64 ADD JUMPDEST PUSH1 0x40 MLOAD DUP1 SWAP2 SUB SWAP1 REVERT JUMPDEST PUSH1 0x0 DUP3 PUSH1 0x1 PUSH1 0x1 PUSH1 0xA0 SHL SUB AND DUP3 PUSH1 0x40 MLOAD PUSH1 0x0 PUSH1 0x40 MLOAD DUP1 DUP4 SUB DUP2 DUP6 DUP8 GAS CALL SWAP3 POP POP POP RETURNDATASIZE DUP1 PUSH1 0x0 DUP2 EQ PUSH2 0x709 JUMPI PUSH1 0x40 MLOAD SWAP2 POP PUSH1 0x1F NOT PUSH1 0x3F RETURNDATASIZE ADD AND DUP3 ADD PUSH1 0x40 MSTORE RETURNDATASIZE DUP3 MSTORE RETURNDATASIZE PUSH1 0x0 PUSH1 0x20 DUP5 ADD RETURNDATACOPY PUSH2 0x70E JUMP JUMPDEST PUSH1 0x60 SWAP2 POP JUMPDEST POP POP SWAP1 POP DUP1 PUSH2 0x756 JUMPI PUSH1 0x40 MLOAD PUSH3 0x461BCD PUSH1 0xE5 SHL DUP2 MSTORE PUSH1 0x20 PUSH1 0x4 DUP3 ADD MSTORE PUSH1 0x14 PUSH1 0x24 DUP3 ADD MSTORE PUSH20 0x10559056081D1C985B9CD9995C8819985A5B1959 PUSH1 0x62 SHL PUSH1 0x44 DUP3 ADD MSTORE PUSH1 0x64 ADD PUSH2 0x6B3 JUMP JUMPDEST POP POP POP JUMP JUMPDEST CALLER PUSH1 0x0 DUP2 DUP2 MSTORE PUSH1 0x2 PUSH1 0x20 MSTORE PUSH1 0x40 SWAP1 DUP2 SWAP1 KECCAK256 DUP1 SLOAD PUSH1 0xFF NOT AND PUSH1 0x1 OR SWAP1 SSTORE MLOAD PUSH32 0x7D314CB6DEE3E8038BED4127C858EDC55B661DFC7B4D11D5BFBB8A6CBCABC333 SWAP1 PUSH2 0x7A7 SWAP1 TIMESTAMP DUP2 MSTORE PUSH1 0x20 ADD SWAP1 JUMP JUMPDEST PUSH1 0x40 MLOAD DUP1 SWAP2 SUB SWAP1 LOG2 JUMP JUMPDEST PUSH1 0x40 MLOAD PUSH4 0x6EB1769F PUSH1 0xE1 SHL DUP2 MSTORE PUSH1 0x1 PUSH1 0x1 PUSH1 0xA0 SHL SUB DUP3 AND PUSH1 0x4 DUP3 ADD MSTORE ADDRESS PUSH1 0x24 DUP3 ADD MSTORE PUSH1 0x0 SWAP1 PUSH20 0xB97EF9EF8734C71904D8002F8B6BC66DD9C48A6E SWAP1 PUSH4 0xDD62ED3E SWAP1 PUSH1 0x44 ADD JUMPDEST PUSH1 0x20 PUSH1 0x40 MLOAD DUP1 DUP4 SUB DUP2 DUP7 GAS STATICCALL ISZERO DUP1 ISZERO PUSH2 0x813 JUMPI RETURNDATASIZE PUSH1 0x0 DUP1 RETURNDATACOPY RETURNDATASIZE PUSH1 0x0 REVERT JUMPDEST POP POP POP POP PUSH1 0x40 MLOAD RETURNDATASIZE PUSH1 0x1F NOT PUSH1 0x1F DUP3 ADD AND DUP3 ADD DUP1 PUSH1 0x40 MSTORE POP DUP2 ADD SWAP1 PUSH2 0x837 SWAP2 SWAP1 PUSH2 0x1E70 JUMP JUMPDEST SWAP3 SWAP2 POP POP JUMP JUMPDEST PUSH2 0x845 PUSH2 0x1B76 JUMP JUMPDEST PUSH1 0x1 PUSH1 0x1 PUSH1 0xA0 SHL SUB DUP2 AND PUSH2 0x89B JUMPI PUSH1 0x40 MLOAD PUSH3 0x461BCD PUSH1 0xE5 SHL DUP2 MSTORE PUSH1 0x20 PUSH1 0x4 DUP3 ADD MSTORE PUSH1 0x18 PUSH1 0x24 DUP3 ADD MSTORE PUSH32 0x496E76616C6964206578656375746F7220616464726573730000000000000000 PUSH1 0x44 DUP3 ADD MSTORE PUSH1 0x64 ADD PUSH2 0x6B3 JUMP JUMPDEST PUSH1 0x4 DUP1 SLOAD PUSH1 0x1 PUSH1 0x1 PUSH1 0xA0 SHL SUB DUP4 DUP2 AND PUSH1 0x1 PUSH1 0x1 PUSH1 0xA0 SHL SUB NOT DUP4 AND DUP2 OR SWAP1 SWAP4 SSTORE PUSH1 0x40 MLOAD SWAP2 AND SWAP2 SWAP1 DUP3 SWAP1 PUSH32 0xEF3C7EB9DBCF33DDF032F4CCE366A07EDA85EED03E3172E4A90C4CC16D57886 SWAP1 PUSH1 0x0 SWAP1 LOG3 POP POP JUMP JUMPDEST PUSH2 0x8F5 PUSH2 0x1BA3 JUMP JUMPDEST PUSH1 0x1 PUSH1 0x1 PUSH1 0xA0 SHL SUB DUP3 AND PUSH1 0x0 SWAP1 DUP2 MSTORE PUSH1 0x2 PUSH1 0x20 MSTORE PUSH1 0x40 SWAP1 KECCAK256 SLOAD DUP3 SWAP1 PUSH1 0xFF AND DUP1 ISZERO PUSH2 0x96B JUMPI POP PUSH1 0x4 SLOAD PUSH1 0x1 PUSH1 0x1 PUSH1 0xA0 SHL SUB AND CALLER EQ DUP1 PUSH2 0x93D JUMPI POP PUSH1 0x1 SLOAD PUSH1 0x1 PUSH1 0x1 PUSH1 0xA0 SHL SUB AND CALLER EQ JUMPDEST DUP1 PUSH2 0x96B JUMPI POP PUSH1 0x1 PUSH1 0x1 PUSH1 0xA0 SHL SUB DUP2 AND PUSH1 0x0 SWAP1 DUP2 MSTORE PUSH1 0x3 PUSH1 0x20 SWAP1 DUP2 MSTORE PUSH1 0x40 DUP1 DUP4 KECCAK256 CALLER DUP5 MSTORE SWAP1 SWAP2 MSTORE SWAP1 KECCAK256 SLOAD PUSH1 0xFF AND JUMPDEST PUSH2 0x987 JUMPI PUSH1 0x40 MLOAD PUSH3 0x461BCD PUSH1 0xE5 SHL DUP2 MSTORE PUSH1 0x4 ADD PUSH2 0x6B3 SWAP1 PUSH2 0x1E89 JUMP JUMPDEST PUSH1 0x0 DUP3 GT PUSH2 0x9A7 JUMPI PUSH1 0x40 MLOAD PUSH3 0x461BCD PUSH1 0xE5 SHL DUP2 MSTORE PUSH1 0x4 ADD PUSH2 0x6B3 SWAP1 PUSH2 0x1EC0 JUMP JUMPDEST PUSH1 0x40 MLOAD PUSH4 0x70A08231 PUSH1 0xE0 SHL DUP2 MSTORE PUSH1 0x1 PUSH1 0x1 PUSH1 0xA0 SHL SUB DUP5 AND PUSH1 0x4 DUP3 ADD MSTORE PUSH1 0x0 SWAP1 PUSH20 0x625E7708F30CA75BFD92586E17077590C60EB4CD SWAP1 PUSH4 0x70A08231 SWAP1 PUSH1 0x24 ADD PUSH1 0x20 PUSH1 0x40 MLOAD DUP1 DUP4 SUB DUP2 DUP7 GAS STATICCALL ISZERO DUP1 ISZERO PUSH2 0xA02 JUMPI RETURNDATASIZE PUSH1 0x0 DUP1 RETURNDATACOPY RETURNDATASIZE PUSH1 0x0 REVERT JUMPDEST POP POP POP POP PUSH1 0x40 MLOAD RETURNDATASIZE PUSH1 0x1F NOT PUSH1 0x1F DUP3 ADD AND DUP3 ADD DUP1 PUSH1 0x40 MSTORE POP DUP2 ADD SWAP1 PUSH2 0xA26 SWAP2 SWAP1 PUSH2 0x1E70 JUMP JUMPDEST SWAP1 POP PUSH1 0x0 PUSH1 0x0 NOT DUP5 EQ PUSH2 0xA39 JUMPI DUP4 PUSH2 0xA3B JUMP JUMPDEST DUP2 JUMPDEST SWAP1 POP PUSH2 0xA5D PUSH20 0x625E7708F30CA75BFD92586E17077590C60EB4CD DUP7 ADDRESS DUP5 PUSH2 0x1BCD JUMP JUMPDEST PUSH1 0x40 MLOAD PUSH4 0x1A4CA37B PUSH1 0xE2 SHL DUP2 MSTORE PUSH20 0xB97EF9EF8734C71904D8002F8B6BC66DD9C48A6E PUSH1 0x4 DUP3 ADD MSTORE PUSH1 0x24 DUP2 ADD DUP3 SWAP1 MSTORE PUSH1 0x1 PUSH1 0x1 PUSH1 0xA0 SHL SUB DUP7 AND PUSH1 0x44 DUP3 ADD MSTORE PUSH20 0x794A61358D6845594F94DC1DB02A252B5B4814AD SWAP1 PUSH4 0x69328DEC SWAP1 PUSH1 0x64 ADD PUSH1 0x20 PUSH1 0x40 MLOAD DUP1 DUP4 SUB DUP2 PUSH1 0x0 DUP8 GAS CALL ISZERO DUP1 ISZERO PUSH2 0xAD8 JUMPI RETURNDATASIZE PUSH1 0x0 DUP1 RETURNDATACOPY RETURNDATASIZE PUSH1 0x0 REVERT JUMPDEST POP POP POP POP PUSH1 0x40 MLOAD RETURNDATASIZE PUSH1 0x1F NOT PUSH1 0x1F DUP3 ADD AND DUP3 ADD DUP1 PUSH1 0x40 MSTORE POP DUP2 ADD SWAP1 PUSH2 0xAFC SWAP2 SWAP1 PUSH2 0x1E70 JUMP JUMPDEST POP PUSH1 0x40 DUP1 MLOAD DUP3 DUP2 MSTORE TIMESTAMP PUSH1 0x20 DUP3 ADD MSTORE PUSH1 0x1 PUSH1 0x1 PUSH1 0xA0 SHL SUB DUP8 AND SWAP2 PUSH32 0x70DA29E9195252627BF891BB6DF865E89E77E5B0D0F6E7D15232DDCE283F55D9 SWAP2 ADD PUSH1 0x40 MLOAD DUP1 SWAP2 SUB SWAP1 LOG2 POP POP POP PUSH2 0xB4D PUSH1 0x1 PUSH1 0x0 SSTORE JUMP JUMPDEST POP POP JUMP JUMPDEST CALLER PUSH1 0x0 DUP2 DUP2 MSTORE PUSH1 0x2 PUSH1 0x20 MSTORE PUSH1 0x40 SWAP1 DUP2 SWAP1 KECCAK256 DUP1 SLOAD PUSH1 0xFF NOT AND SWAP1 SSTORE MLOAD PUSH32 0x75AF106136E6E9960067CAEF37ACE95FDE15A0EC63B419E1C949EA7A10C4D7BA SWAP1 PUSH2 0x7A7 SWAP1 TIMESTAMP DUP2 MSTORE PUSH1 0x20 ADD SWAP1 JUMP JUMPDEST PUSH2 0xBA2 PUSH2 0x1BA3 JUMP JUMPDEST PUSH1 0x1 PUSH1 0x1 PUSH1 0xA0 SHL SUB DUP4 AND PUSH1 0x0 SWAP1 DUP2 MSTORE PUSH1 0x2 PUSH1 0x20 MSTORE PUSH1 0x40 SWAP1 KECCAK256 SLOAD DUP4 SWAP1 PUSH1 0xFF AND DUP1 ISZERO PUSH2 0xC18 JUMPI POP PUSH1 0x4 SLOAD PUSH1 0x1 PUSH1 0x1 PUSH1 0xA0 SHL SUB AND CALLER EQ DUP1 PUSH2 0xBEA JUMPI POP PUSH1 0x1 SLOAD PUSH1 0x1 PUSH1 0x1 PUSH1 0xA0 SHL SUB AND CALLER EQ JUMPDEST DUP1 PUSH2 0xC18 JUMPI POP PUSH1 0x1 PUSH1 0x1 PUSH1 0xA0 SHL SUB DUP2 AND PUSH1 0x0 SWAP1 DUP2 MSTORE PUSH1 0x3 PUSH1 0x20 SWAP1 DUP2 MSTORE PUSH1 0x40 DUP1 DUP4 KECCAK256 CALLER DUP5 MSTORE SWAP1 SWAP2 MSTORE SWAP1 KECCAK256 SLOAD PUSH1 0xFF AND JUMPDEST PUSH2 0xC34 JUMPI PUSH1 0x40 MLOAD PUSH3 0x461BCD PUSH1 0xE5 SHL DUP2 MSTORE PUSH1 0x4 ADD PUSH2 0x6B3 SWAP1 PUSH2 0x1E89 JUMP JUMPDEST DUP2 CALLVALUE LT ISZERO PUSH2 0xC54 JUMPI PUSH1 0x40 MLOAD PUSH3 0x461BCD PUSH1 0xE5 SHL DUP2 MSTORE PUSH1 0x4 ADD PUSH2 0x6B3 SWAP1 PUSH2 0x1EF7 JUMP JUMPDEST PUSH1 0x40 DUP1 MLOAD PUSH2 0x1E0 DUP2 ADD DUP3 MSTORE PUSH1 0x1 PUSH1 0x1 PUSH1 0xA0 SHL SUB DUP7 AND PUSH2 0x100 DUP3 ADD DUP2 DUP2 MSTORE PUSH2 0x120 DUP4 ADD SWAP2 SWAP1 SWAP2 MSTORE PUSH1 0x0 PUSH2 0x140 DUP4 ADD DUP2 SWAP1 MSTORE PUSH2 0x160 DUP4 ADD DUP2 SWAP1 MSTORE PUSH20 0xFB02132333A79C8B5BD0B64E3ABCCA5F7FAF2937 PUSH2 0x180 DUP5 ADD MSTORE PUSH20 0xB97EF9EF8734C71904D8002F8B6BC66DD9C48A6E PUSH2 0x1A0 DUP5 ADD MSTORE DUP4 MLOAD DUP2 DUP2 MSTORE PUSH1 0x20 DUP2 ADD SWAP1 SWAP5 MSTORE SWAP3 DUP3 SWAP2 SWAP1 PUSH2 0x1C0 DUP4 ADD SWAP1 DUP2 MSTORE POP DUP2 MSTORE PUSH1 0x20 ADD PUSH1 0x40 MLOAD DUP1 PUSH2 0x100 ADD PUSH1 0x40 MSTORE DUP1 DUP8 DUP2 MSTORE PUSH1 0x20 ADD PUSH1 0x0 DUP2 MSTORE PUSH1 0x20 ADD PUSH1 0x0 DUP2 MSTORE PUSH1 0x20 ADD PUSH1 0x0 DUP2 MSTORE PUSH1 0x20 ADD DUP7 DUP2 MSTORE PUSH1 0x20 ADD PUSH1 0x0 DUP2 MSTORE PUSH1 0x20 ADD PUSH1 0x0 DUP2 MSTORE PUSH1 0x20 ADD PUSH1 0x0 DUP2 MSTORE POP DUP2 MSTORE PUSH1 0x20 ADD PUSH1 0x4 PUSH1 0x7 DUP2 GT ISZERO PUSH2 0xD38 JUMPI PUSH2 0xD38 PUSH2 0x1F2E JUMP JUMPDEST DUP2 MSTORE PUSH1 0x20 ADD PUSH1 0x0 DUP2 MSTORE PUSH1 0x1 PUSH1 0x20 DUP3 ADD MSTORE PUSH1 0x0 PUSH1 0x40 DUP1 DUP4 ADD DUP3 SWAP1 MSTORE PUSH1 0x60 DUP4 ADD DUP3 SWAP1 MSTORE PUSH1 0x80 SWAP1 SWAP3 ADD MSTORE MLOAD PUSH4 0x6996807B PUSH1 0xE0 SHL DUP2 MSTORE SWAP1 SWAP2 POP PUSH20 0x8F550E53DFE96C055D5BDB267C21F268FCAF63B2 SWAP1 PUSH4 0x6996807B SWAP1 DUP6 SWAP1 PUSH2 0xD99 SWAP1 DUP6 SWAP1 PUSH1 0x4 ADD PUSH2 0x2008 JUMP JUMPDEST PUSH1 0x20 PUSH1 0x40 MLOAD DUP1 DUP4 SUB DUP2 DUP6 DUP9 GAS CALL ISZERO DUP1 ISZERO PUSH2 0xDB7 JUMPI RETURNDATASIZE PUSH1 0x0 DUP1 RETURNDATACOPY RETURNDATASIZE PUSH1 0x0 REVERT JUMPDEST POP POP POP POP POP PUSH1 0x40 MLOAD RETURNDATASIZE PUSH1 0x1F NOT PUSH1 0x1F DUP3 ADD AND DUP3 ADD DUP1 PUSH1 0x40 MSTORE POP DUP2 ADD SWAP1 PUSH2 0xDDC SWAP2 SWAP1 PUSH2 0x1E70 JUMP JUMPDEST POP DUP5 PUSH1 0x1 PUSH1 0x1 PUSH1 0xA0 SHL SUB AND PUSH32 0xB57985EB118AA66EB6E3DD6F8B62AA76A3999B727B8E48912A9242F1BB07235A TIMESTAMP PUSH1 0x40 MLOAD PUSH2 0xE18 SWAP2 DUP2 MSTORE PUSH1 0x20 ADD SWAP1 JUMP JUMPDEST PUSH1 0x40 MLOAD DUP1 SWAP2 SUB SWAP1 LOG2 POP POP PUSH2 0x756 PUSH1 0x1 PUSH1 0x0 SSTORE JUMP JUMPDEST PUSH2 0xE34 PUSH2 0x1BA3 JUMP JUMPDEST PUSH1 0x1 PUSH1 0x1 PUSH1 0xA0 SHL SUB DUP4 AND PUSH1 0x0 SWAP1 DUP2 MSTORE PUSH1 0x2 PUSH1 0x20 MSTORE PUSH1 0x40 SWAP1 KECCAK256 SLOAD DUP4 SWAP1 PUSH1 0xFF AND DUP1 ISZERO PUSH2 0xEAA JUMPI POP PUSH1 0x4 SLOAD PUSH1 0x1 PUSH1 0x1 PUSH1 0xA0 SHL SUB AND CALLER EQ DUP1 PUSH2 0xE7C JUMPI POP PUSH1 0x1 SLOAD PUSH1 0x1 PUSH1 0x1 PUSH1 0xA0 SHL SUB AND CALLER EQ JUMPDEST DUP1 PUSH2 0xEAA JUMPI POP PUSH1 0x1 PUSH1 0x1 PUSH1 0xA0 SHL SUB DUP2 AND PUSH1 0x0 SWAP1 DUP2 MSTORE PUSH1 0x3 PUSH1 0x20 SWAP1 DUP2 MSTORE PUSH1 0x40 DUP1 DUP4 KECCAK256 CALLER DUP5 MSTORE SWAP1 SWAP2 MSTORE SWAP1 KECCAK256 SLOAD PUSH1 0xFF AND JUMPDEST PUSH2 0xEC6 JUMPI PUSH1 0x40 MLOAD PUSH3 0x461BCD PUSH1 0xE5 SHL DUP2 MSTORE PUSH1 0x4 ADD PUSH2 0x6B3 SWAP1 PUSH2 0x1E89 JUMP JUMPDEST PUSH1 0x0 DUP4 GT PUSH2 0xEE6 JUMPI PUSH1 0x40 MLOAD PUSH3 0x461BCD PUSH1 0xE5 SHL DUP2 MSTORE PUSH1 0x4 ADD PUSH2 0x6B3 SWAP1 PUSH2 0x1EC0 JUMP JUMPDEST DUP2 CALLVALUE LT ISZERO PUSH2 0xF06 JUMPI PUSH1 0x40 MLOAD PUSH3 0x461BCD PUSH1 0xE5 SHL DUP2 MSTORE PUSH1 0x4 ADD PUSH2 0x6B3 SWAP1 PUSH2 0x1EF7 JUMP JUMPDEST PUSH2 0xF3A PUSH20 0xB97EF9EF8734C71904D8002F8B6BC66DD9C48A6E DUP6 PUSH20 0xD3D60D22D415AD43B7E64B510D86A30F19B1B12C DUP7 PUSH2 0x1BCD JUMP JUMPDEST PUSH1 0x40 DUP1 MLOAD PUSH2 0x1E0 DUP2 ADD DUP3 MSTORE PUSH1 0x1 PUSH1 0x1 PUSH1 0xA0 SHL SUB DUP7 AND PUSH2 0x100 DUP1 DUP4 ADD DUP3 DUP2 MSTORE PUSH2 0x120 DUP5 ADD SWAP3 SWAP1 SWAP3 MSTORE PUSH1 0x0 PUSH2 0x140 DUP5 ADD DUP2 SWAP1 MSTORE PUSH2 0x160 DUP5 ADD DUP2 SWAP1 MSTORE PUSH20 0xFB02132333A79C8B5BD0B64E3ABCCA5F7FAF2937 PUSH2 0x180 DUP6 ADD MSTORE PUSH20 0xB97EF9EF8734C71904D8002F8B6BC66DD9C48A6E PUSH2 0x1A0 DUP6 ADD MSTORE DUP5 MLOAD DUP2 DUP2 MSTORE PUSH1 0x20 DUP1 DUP3 ADD DUP8 MSTORE PUSH2 0x1C0 DUP7 ADD SWAP2 SWAP1 SWAP2 MSTORE SWAP3 DUP5 MSTORE DUP5 MLOAD SWAP2 DUP3 ADD DUP6 MSTORE DUP1 DUP3 MSTORE DUP2 DUP4 ADD DUP9 SWAP1 MSTORE DUP2 DUP6 ADD DUP2 SWAP1 MSTORE PUSH1 0x0 NOT PUSH1 0x60 DUP4 ADD MSTORE PUSH1 0x80 DUP3 ADD DUP8 SWAP1 MSTORE PUSH1 0xA0 DUP3 ADD DUP2 SWAP1 MSTORE PUSH1 0xC0 DUP3 ADD DUP2 SWAP1 MSTORE PUSH1 0xE0 DUP3 ADD DUP2 SWAP1 MSTORE SWAP2 DUP4 ADD MSTORE SWAP2 DUP2 ADD PUSH1 0x2 DUP2 MSTORE PUSH1 0x20 ADD PUSH1 0x0 DUP2 MSTORE PUSH1 0x1 PUSH1 0x20 DUP3 ADD MSTORE PUSH1 0x0 PUSH1 0x40 DUP1 DUP4 ADD DUP3 SWAP1 MSTORE PUSH1 0x60 DUP4 ADD DUP3 SWAP1 MSTORE PUSH1 0x80 SWAP1 SWAP3 ADD MSTORE MLOAD PUSH4 0x6996807B PUSH1 0xE0 SHL DUP2 MSTORE SWAP1 SWAP2 POP PUSH20 0x8F550E53DFE96C055D5BDB267C21F268FCAF63B2 SWAP1 PUSH4 0x6996807B SWAP1 DUP6 SWAP1 PUSH2 0x1065 SWAP1 DUP6 SWAP1 PUSH1 0x4 ADD PUSH2 0x2008 JUMP JUMPDEST PUSH1 0x20 PUSH1 0x40 MLOAD DUP1 DUP4 SUB DUP2 DUP6 DUP9 GAS CALL ISZERO DUP1 ISZERO PUSH2 0x1083 JUMPI RETURNDATASIZE PUSH1 0x0 DUP1 RETURNDATACOPY RETURNDATASIZE PUSH1 0x0 REVERT JUMPDEST POP POP POP POP POP PUSH1 0x40 MLOAD RETURNDATASIZE PUSH1 0x1F NOT PUSH1 0x1F DUP3 ADD AND DUP3 ADD DUP1 PUSH1 0x40 MSTORE POP DUP2 ADD SWAP1 PUSH2 0x10A8 SWAP2 SWAP1 PUSH2 0x1E70 JUMP JUMPDEST POP PUSH1 0x40 DUP1 MLOAD DUP6 DUP2 MSTORE TIMESTAMP PUSH1 0x20 DUP3 ADD MSTORE PUSH1 0x1 PUSH1 0x1 PUSH1 0xA0 SHL SUB DUP8 AND SWAP2 PUSH32 0x386D829CBEBD29FC356ABE4ADA8A6D6C8A36E6F1E23ADA4B77892F1AE6A65781 SWAP2 ADD PUSH2 0xE18 JUMP JUMPDEST PUSH2 0x10F1 PUSH2 0x1BA3 JUMP JUMPDEST PUSH1 0x1 PUSH1 0x1 PUSH1 0xA0 SHL SUB DUP4 AND PUSH1 0x0 SWAP1 DUP2 MSTORE PUSH1 0x2 PUSH1 0x20 MSTORE PUSH1 0x40 SWAP1 KECCAK256 SLOAD DUP4 SWAP1 PUSH1 0xFF AND DUP1 ISZERO PUSH2 0x1167 JUMPI POP PUSH1 0x4 SLOAD PUSH1 0x1 PUSH1 0x1 PUSH1 0xA0 SHL SUB AND CALLER EQ DUP1 PUSH2 0x1139 JUMPI POP PUSH1 0x1 SLOAD PUSH1 0x1 PUSH1 0x1 PUSH1 0xA0 SHL SUB AND CALLER EQ JUMPDEST DUP1 PUSH2 0x1167 JUMPI POP PUSH1 0x1 PUSH1 0x1 PUSH1 0xA0 SHL SUB DUP2 AND PUSH1 0x0 SWAP1 DUP2 MSTORE PUSH1 0x3 PUSH1 0x20 SWAP1 DUP2 MSTORE PUSH1 0x40 DUP1 DUP4 KECCAK256 CALLER DUP5 MSTORE SWAP1 SWAP2 MSTORE SWAP1 KECCAK256 SLOAD PUSH1 0xFF AND JUMPDEST PUSH2 0x1183 JUMPI PUSH1 0x40 MLOAD PUSH3 0x461BCD PUSH1 0xE5 SHL DUP2 MSTORE PUSH1 0x4 ADD PUSH2 0x6B3 SWAP1 PUSH2 0x1E89 JUMP JUMPDEST PUSH1 0x0 DUP4 GT PUSH2 0x11A3 JUMPI PUSH1 0x40 MLOAD PUSH3 0x461BCD PUSH1 0xE5 SHL DUP2 MSTORE PUSH1 0x4 ADD PUSH2 0x6B3 SWAP1 PUSH2 0x1EC0 JUMP JUMPDEST DUP2 CALLVALUE LT ISZERO PUSH2 0x11C3 JUMPI PUSH1 0x40 MLOAD PUSH3 0x461BCD PUSH1 0xE5 SHL DUP2 MSTORE PUSH1 0x4 ADD PUSH2 0x6B3 SWAP1 PUSH2 0x1EF7 JUMP JUMPDEST PUSH1 0x40 DUP1 MLOAD PUSH2 0x1E0 DUP2 ADD DUP3 MSTORE PUSH1 0x1 PUSH1 0x1 PUSH1 0xA0 SHL SUB DUP7 AND PUSH2 0x100 DUP3 ADD DUP2 DUP2 MSTORE PUSH2 0x120 DUP4 ADD SWAP2 SWAP1 SWAP2 MSTORE PUSH1 0x0 PUSH2 0x140 DUP4 ADD DUP2 SWAP1 MSTORE PUSH2 0x160 DUP4 ADD DUP2 SWAP1 MSTORE PUSH20 0xFB02132333A79C8B5BD0B64E3ABCCA5F7FAF2937 PUSH2 0x180 DUP5 ADD MSTORE PUSH20 0xB97EF9EF8734C71904D8002F8B6BC66DD9C48A6E PUSH2 0x1A0 DUP5 ADD MSTORE DUP4 MLOAD DUP2 DUP2 MSTORE PUSH1 0x20 DUP2 ADD SWAP1 SWAP5 MSTORE SWAP3 DUP3 SWAP2 SWAP1 PUSH2 0x1C0 DUP4 ADD SWAP1 DUP2 MSTORE POP DUP2 MSTORE PUSH1 0x20 ADD PUSH1 0x40 MLOAD DUP1 PUSH2 0x100 ADD PUSH1 0x40 MSTORE DUP1 PUSH1 0x0 DUP2 MSTORE PUSH1 0x20 ADD DUP8 DUP2 MSTORE PUSH1 0x20 ADD PUSH1 0x0 DUP2 MSTORE PUSH1 0x20 ADD PUSH1 0x0 DUP2 MSTORE PUSH1 0x20 ADD DUP7 DUP2 MSTORE PUSH1 0x20 ADD PUSH1 0x0 DUP2 MSTORE PUSH1 0x20 ADD PUSH1 0x0 DUP2 MSTORE PUSH1 0x20 ADD PUSH1 0x0 DUP2 MSTORE POP DUP2 MSTORE PUSH1 0x20 ADD PUSH1 0x4 PUSH1 0x7 DUP2 GT ISZERO PUSH2 0x12A7 JUMPI PUSH2 0x12A7 PUSH2 0x1F2E JUMP JUMPDEST DUP2 MSTORE PUSH1 0x20 ADD PUSH1 0x0 DUP2 MSTORE PUSH1 0x1 PUSH1 0x20 DUP3 ADD MSTORE PUSH1 0x0 PUSH1 0x40 DUP1 DUP4 ADD DUP3 SWAP1 MSTORE PUSH1 0x60 DUP4 ADD DUP3 SWAP1 MSTORE PUSH1 0x80 SWAP1 SWAP3 ADD MSTORE MLOAD PUSH4 0x6996807B PUSH1 0xE0 SHL DUP2 MSTORE SWAP1 SWAP2 POP PUSH20 0x8F550E53DFE96C055D5BDB267C21F268FCAF63B2 SWAP1 PUSH4 0x6996807B SWAP1 DUP6 SWAP1 PUSH2 0x1308 SWAP1 DUP6 SWAP1 PUSH1 0x4 ADD PUSH2 0x2008 JUMP JUMPDEST PUSH1 0x20 PUSH1 0x40 MLOAD DUP1 DUP4 SUB DUP2 DUP6 DUP9 GAS CALL ISZERO DUP1 ISZERO PUSH2 0x1326 JUMPI RETURNDATASIZE PUSH1 0x0 DUP1 RETURNDATACOPY RETURNDATASIZE PUSH1 0x0 REVERT JUMPDEST POP POP POP POP POP PUSH1 0x40 MLOAD RETURNDATASIZE PUSH1 0x1F NOT PUSH1 0x1F DUP3 ADD AND DUP3 ADD DUP1 PUSH1 0x40 MSTORE POP DUP2 ADD SWAP1 PUSH2 0x134B SWAP2 SWAP1 PUSH2 0x1E70 JUMP JUMPDEST POP PUSH1 0x40 DUP1 MLOAD DUP6 DUP2 MSTORE TIMESTAMP PUSH1 0x20 DUP3 ADD MSTORE PUSH1 0x1 PUSH1 0x1 PUSH1 0xA0 SHL SUB DUP8 AND SWAP2 PUSH32 0xB23D7CF90FABD79FE0473A1A243147CB4DA725FDD188BA3BE8FD455F1DB84D41 SWAP2 ADD PUSH2 0xE18 JUMP JUMPDEST PUSH2 0x1394 PUSH2 0x1B76 JUMP JUMPDEST PUSH2 0x139E PUSH1 0x0 PUSH2 0x1C34 JUMP JUMPDEST JUMP JUMPDEST PUSH2 0x13A8 PUSH2 0x1BA3 JUMP JUMPDEST PUSH1 0x1 PUSH1 0x1 PUSH1 0xA0 SHL SUB DUP5 AND PUSH1 0x0 SWAP1 DUP2 MSTORE PUSH1 0x2 PUSH1 0x20 MSTORE PUSH1 0x40 SWAP1 KECCAK256 SLOAD DUP5 SWAP1 PUSH1 0xFF AND DUP1 ISZERO PUSH2 0x141E JUMPI POP PUSH1 0x4 SLOAD PUSH1 0x1 PUSH1 0x1 PUSH1 0xA0 SHL SUB AND CALLER EQ DUP1 PUSH2 0x13F0 JUMPI POP PUSH1 0x1 SLOAD PUSH1 0x1 PUSH1 0x1 PUSH1 0xA0 SHL SUB AND CALLER EQ JUMPDEST DUP1 PUSH2 0x141E JUMPI POP PUSH1 0x1 PUSH1 0x1 PUSH1 0xA0 SHL SUB DUP2 AND PUSH1 0x0 SWAP1 DUP2 MSTORE PUSH1 0x3 PUSH1 0x20 SWAP1 DUP2 MSTORE PUSH1 0x40 DUP1 DUP4 KECCAK256 CALLER DUP5 MSTORE SWAP1 SWAP2 MSTORE SWAP1 KECCAK256 SLOAD PUSH1 0xFF AND JUMPDEST PUSH2 0x143A JUMPI PUSH1 0x40 MLOAD PUSH3 0x461BCD PUSH1 0xE5 SHL DUP2 MSTORE PUSH1 0x4 ADD PUSH2 0x6B3 SWAP1 PUSH2 0x1E89 JUMP JUMPDEST PUSH1 0x0 DUP5 GT PUSH2 0x1494 JUMPI PUSH1 0x40 MLOAD PUSH3 0x461BCD PUSH1 0xE5 SHL DUP2 MSTORE PUSH1 0x20 PUSH1 0x4 DUP3 ADD MSTORE PUSH1 0x21 PUSH1 0x24 DUP3 ADD MSTORE PUSH32 0x436F6C6C61746572616C206D7573742062652067726561746572207468616E20 PUSH1 0x44 DUP3 ADD MSTORE PUSH1 0x3 PUSH1 0xFC SHL PUSH1 0x64 DUP3 ADD MSTORE PUSH1 0x84 ADD PUSH2 0x6B3 JUMP JUMPDEST PUSH1 0x0 DUP4 GT PUSH2 0x14E4 JUMPI PUSH1 0x40 MLOAD PUSH3 0x461BCD PUSH1 0xE5 SHL DUP2 MSTORE PUSH1 0x20 PUSH1 0x4 DUP3 ADD MSTORE PUSH1 0x1B PUSH1 0x24 DUP3 ADD MSTORE PUSH32 0x53697A65206D7573742062652067726561746572207468616E20300000000000 PUSH1 0x44 DUP3 ADD MSTORE PUSH1 0x64 ADD PUSH2 0x6B3 JUMP JUMPDEST DUP2 CALLVALUE LT ISZERO PUSH2 0x1504 JUMPI PUSH1 0x40 MLOAD PUSH3 0x461BCD PUSH1 0xE5 SHL DUP2 MSTORE PUSH1 0x4 ADD PUSH2 0x6B3 SWAP1 PUSH2 0x1EF7 JUMP JUMPDEST PUSH2 0x1524 PUSH20 0xB97EF9EF8734C71904D8002F8B6BC66DD9C48A6E DUP7 ADDRESS DUP8 PUSH2 0x1BCD JUMP JUMPDEST PUSH2 0x1557 PUSH20 0xB97EF9EF8734C71904D8002F8B6BC66DD9C48A6E PUSH20 0xD3D60D22D415AD43B7E64B510D86A30F19B1B12C DUP7 PUSH2 0x1C86 JUMP JUMPDEST PUSH1 0x40 DUP1 MLOAD PUSH2 0x1E0 DUP2 ADD DUP3 MSTORE PUSH1 0x1 PUSH1 0x1 PUSH1 0xA0 SHL SUB DUP8 AND PUSH2 0x100 DUP3 ADD DUP2 DUP2 MSTORE PUSH2 0x120 DUP4 ADD SWAP2 SWAP1 SWAP2 MSTORE PUSH1 0x0 PUSH2 0x140 DUP4 ADD DUP2 SWAP1 MSTORE PUSH2 0x160 DUP4 ADD DUP2 SWAP1 MSTORE PUSH20 0xFB02132333A79C8B5BD0B64E3ABCCA5F7FAF2937 PUSH2 0x180 DUP5 ADD MSTORE PUSH20 0xB97EF9EF8734C71904D8002F8B6BC66DD9C48A6E PUSH2 0x1A0 DUP5 ADD MSTORE DUP4 MLOAD DUP2 DUP2 MSTORE PUSH1 0x20 DUP2 ADD SWAP1 SWAP5 MSTORE SWAP3 DUP3 SWAP2 SWAP1 PUSH2 0x1C0 DUP4 ADD MSTORE DUP2 MSTORE PUSH1 0x40 DUP1 MLOAD PUSH2 0x100 DUP2 ADD DUP3 MSTORE DUP8 DUP2 MSTORE PUSH1 0x20 DUP2 DUP2 ADD DUP11 SWAP1 MSTORE PUSH1 0x0 DUP3 DUP5 ADD DUP2 SWAP1 MSTORE PUSH1 0x0 NOT PUSH1 0x60 DUP5 ADD MSTORE PUSH1 0x80 DUP4 ADD DUP10 SWAP1 MSTORE PUSH1 0xA0 DUP4 ADD DUP2 SWAP1 MSTORE PUSH1 0xC0 DUP4 ADD DUP2 SWAP1 MSTORE PUSH1 0xE0 DUP4 ADD MSTORE DUP4 ADD MSTORE ADD PUSH1 0x2 DUP2 MSTORE PUSH1 0x20 ADD PUSH1 0x0 DUP2 MSTORE PUSH1 0x1 PUSH1 0x20 DUP3 ADD MSTORE PUSH1 0x0 PUSH1 0x40 DUP1 DUP4 ADD DUP3 SWAP1 MSTORE PUSH1 0x60 DUP4 ADD DUP3 SWAP1 MSTORE PUSH1 0x80 SWAP1 SWAP3 ADD MSTORE MLOAD PUSH4 0x6996807B PUSH1 0xE0 SHL DUP2 MSTORE SWAP1 SWAP2 POP PUSH20 0x8F550E53DFE96C055D5BDB267C21F268FCAF63B2 SWAP1 PUSH4 0x6996807B SWAP1 DUP6 SWAP1 PUSH2 0x1684 SWAP1 DUP6 SWAP1 PUSH1 0x4 ADD PUSH2 0x2008 JUMP JUMPDEST PUSH1 0x20 PUSH1 0x40 MLOAD DUP1 DUP4 SUB DUP2 DUP6 DUP9 GAS CALL ISZERO DUP1 ISZERO PUSH2 0x16A2 JUMPI RETURNDATASIZE PUSH1 0x0 DUP1 RETURNDATACOPY RETURNDATASIZE PUSH1 0x0 REVERT JUMPDEST POP POP POP POP POP PUSH1 0x40 MLOAD RETURNDATASIZE PUSH1 0x1F NOT PUSH1 0x1F DUP3 ADD AND DUP3 ADD DUP1 PUSH1 0x40 MSTORE POP DUP2 ADD SWAP1 PUSH2 0x16C7 SWAP2 SWAP1 PUSH2 0x1E70 JUMP JUMPDEST POP PUSH1 0x1 PUSH1 0x1 PUSH1 0xA0 SHL SUB DUP7 AND PUSH32 0x72B20728A6560109B83B0F18C8A1B7C0E9512E9FD7292B883BD1F49F8321629 DUP7 PUSH2 0x16FE DUP2 DUP9 PUSH2 0x20E7 JUMP JUMPDEST PUSH1 0x40 DUP1 MLOAD SWAP3 DUP4 MSTORE PUSH1 0x20 DUP4 ADD SWAP2 SWAP1 SWAP2 MSTORE TIMESTAMP SWAP1 DUP3 ADD MSTORE PUSH1 0x60 ADD PUSH1 0x40 MLOAD DUP1 SWAP2 SUB SWAP1 LOG2 POP POP PUSH2 0x1729 PUSH1 0x1 PUSH1 0x0 SSTORE JUMP JUMPDEST POP POP POP POP JUMP JUMPDEST PUSH1 0x40 MLOAD PUSH4 0x6EB1769F PUSH1 0xE1 SHL DUP2 MSTORE PUSH1 0x1 PUSH1 0x1 PUSH1 0xA0 SHL SUB DUP3 AND PUSH1 0x4 DUP3 ADD MSTORE ADDRESS PUSH1 0x24 DUP3 ADD MSTORE PUSH1 0x0 SWAP1 PUSH20 0x625E7708F30CA75BFD92586E17077590C60EB4CD SWAP1 PUSH4 0xDD62ED3E SWAP1 PUSH1 0x44 ADD PUSH2 0x7F6 JUMP JUMPDEST PUSH1 0x1 PUSH1 0x1 PUSH1 0xA0 SHL SUB DUP2 AND PUSH2 0x17CE JUMPI PUSH1 0x40 MLOAD PUSH3 0x461BCD PUSH1 0xE5 SHL DUP2 MSTORE PUSH1 0x20 PUSH1 0x4 DUP3 ADD MSTORE PUSH1 0x17 PUSH1 0x24 DUP3 ADD MSTORE PUSH32 0x496E76616C6964206D616E616765722061646472657373000000000000000000 PUSH1 0x44 DUP3 ADD MSTORE PUSH1 0x64 ADD PUSH2 0x6B3 JUMP JUMPDEST CALLER PUSH1 0x0 DUP2 DUP2 MSTORE PUSH1 0x3 PUSH1 0x20 SWAP1 DUP2 MSTORE PUSH1 0x40 DUP1 DUP4 KECCAK256 PUSH1 0x1 PUSH1 0x1 PUSH1 0xA0 SHL SUB DUP7 AND DUP1 DUP6 MSTORE SWAP1 DUP4 MSTORE SWAP3 DUP2 SWAP1 KECCAK256 DUP1 SLOAD PUSH1 0xFF NOT AND PUSH1 0x1 OR SWAP1 SSTORE MLOAD TIMESTAMP DUP2 MSTORE SWAP2 SWAP3 SWAP2 PUSH32 0xA17A7B70D2AD92B43087E4D6D40B4236AF16C9931DC0C42D195FAFD5D057206D SWAP2 ADD JUMPDEST PUSH1 0x40 MLOAD DUP1 SWAP2 SUB SWAP1 LOG3 POP JUMP JUMPDEST PUSH1 0x1 PUSH1 0x1 PUSH1 0xA0 SHL SUB DUP3 AND PUSH1 0x0 SWAP1 DUP2 MSTORE PUSH1 0x2 PUSH1 0x20 MSTORE PUSH1 0x40 DUP2 KECCAK256 SLOAD PUSH1 0xFF AND DUP1 ISZERO PUSH2 0x18B1 JUMPI POP PUSH1 0x4 SLOAD PUSH1 0x1 PUSH1 0x1 PUSH1 0xA0 SHL SUB DUP4 DUP2 AND SWAP2 AND EQ DUP1 PUSH2 0x1881 JUMPI POP PUSH1 0x1 SLOAD PUSH1 0x1 PUSH1 0x1 PUSH1 0xA0 SHL SUB DUP4 DUP2 AND SWAP2 AND EQ JUMPDEST DUP1 PUSH2 0x18B1 JUMPI POP PUSH1 0x1 PUSH1 0x1 PUSH1 0xA0 SHL SUB DUP1 DUP5 AND PUSH1 0x0 SWAP1 DUP2 MSTORE PUSH1 0x3 PUSH1 0x20 SWAP1 DUP2 MSTORE PUSH1 0x40 DUP1 DUP4 KECCAK256 SWAP4 DUP7 AND DUP4 MSTORE SWAP3 SWAP1 MSTORE KECCAK256 SLOAD PUSH1 0xFF AND JUMPDEST SWAP4 SWAP3 POP POP POP JUMP JUMPDEST CALLER PUSH1 0x0 DUP2 DUP2 MSTORE PUSH1 0x3 PUSH1 0x20 SWAP1 DUP2 MSTORE PUSH1 0x40 DUP1 DUP4 KECCAK256 PUSH1 0x1 PUSH1 0x1 PUSH1 0xA0 SHL SUB DUP7 AND DUP1 DUP6 MSTORE SWAP1 DUP4 MSTORE SWAP3 DUP2 SWAP1 KECCAK256 DUP1 SLOAD PUSH1 0xFF NOT AND SWAP1 SSTORE MLOAD TIMESTAMP DUP2 MSTORE SWAP2 SWAP3 SWAP2 PUSH32 0xED5600BF19219D52EEF2EB710513D9B7B4545DCC654D2A81C9CD998AC7C29C05 SWAP2 ADD PUSH2 0x182A JUMP JUMPDEST PUSH2 0x191D PUSH2 0x1B76 JUMP JUMPDEST PUSH1 0x1 PUSH1 0x1 PUSH1 0xA0 SHL SUB DUP3 AND PUSH2 0x1967 JUMPI PUSH1 0x40 MLOAD PUSH3 0x461BCD PUSH1 0xE5 SHL DUP2 MSTORE PUSH1 0x20 PUSH1 0x4 DUP3 ADD MSTORE PUSH1 0x11 PUSH1 0x24 DUP3 ADD MSTORE PUSH17 0x125B9D985B1A59081C9958DA5C1A595B9D PUSH1 0x7A SHL PUSH1 0x44 DUP3 ADD MSTORE PUSH1 0x64 ADD PUSH2 0x6B3 JUMP JUMPDEST PUSH2 0x756 PUSH1 0x1 PUSH1 0x1 PUSH1 0xA0 SHL SUB DUP5 AND DUP4 DUP4 PUSH2 0x1C86 JUMP JUMPDEST PUSH2 0x1983 PUSH2 0x1BA3 JUMP JUMPDEST PUSH1 0x1 PUSH1 0x1 PUSH1 0xA0 SHL SUB DUP3 AND PUSH1 0x0 SWAP1 DUP2 MSTORE PUSH1 0x2 PUSH1 0x20 MSTORE PUSH1 0x40 SWAP1 KECCAK256 SLOAD DUP3 SWAP1 PUSH1 0xFF AND DUP1 ISZERO PUSH2 0x19F9 JUMPI POP PUSH1 0x4 SLOAD PUSH1 0x1 PUSH1 0x1 PUSH1 0xA0 SHL SUB AND CALLER EQ DUP1 PUSH2 0x19CB JUMPI POP PUSH1 0x1 SLOAD PUSH1 0x1 PUSH1 0x1 PUSH1 0xA0 SHL SUB AND CALLER EQ JUMPDEST DUP1 PUSH2 0x19F9 JUMPI POP PUSH1 0x1 PUSH1 0x1 PUSH1 0xA0 SHL SUB DUP2 AND PUSH1 0x0 SWAP1 DUP2 MSTORE PUSH1 0x3 PUSH1 0x20 SWAP1 DUP2 MSTORE PUSH1 0x40 DUP1 DUP4 KECCAK256 CALLER DUP5 MSTORE SWAP1 SWAP2 MSTORE SWAP1 KECCAK256 SLOAD PUSH1 0xFF AND JUMPDEST PUSH2 0x1A15 JUMPI PUSH1 0x40 MLOAD PUSH3 0x461BCD PUSH1 0xE5 SHL DUP2 MSTORE PUSH1 0x4 ADD PUSH2 0x6B3 SWAP1 PUSH2 0x1E89 JUMP JUMPDEST PUSH1 0x0 DUP3 GT PUSH2 0x1A35 JUMPI PUSH1 0x40 MLOAD PUSH3 0x461BCD PUSH1 0xE5 SHL DUP2 MSTORE PUSH1 0x4 ADD PUSH2 0x6B3 SWAP1 PUSH2 0x1EC0 JUMP JUMPDEST PUSH2 0x1A55 PUSH20 0xB97EF9EF8734C71904D8002F8B6BC66DD9C48A6E DUP5 ADDRESS DUP6 PUSH2 0x1BCD JUMP JUMPDEST PUSH1 0x40 MLOAD PUSH4 0x617BA037 PUSH1 0xE0 SHL DUP2 MSTORE PUSH20 0xB97EF9EF8734C71904D8002F8B6BC66DD9C48A6E PUSH1 0x4 DUP3 ADD MSTORE PUSH1 0x24 DUP2 ADD DUP4 SWAP1 MSTORE PUSH1 0x1 PUSH1 0x1 PUSH1 0xA0 SHL SUB DUP5 AND PUSH1 0x44 DUP3 ADD MSTORE PUSH1 0x0 PUSH1 0x64 DUP3 ADD MSTORE PUSH20 0x794A61358D6845594F94DC1DB02A252B5B4814AD SWAP1 PUSH4 0x617BA037 SWAP1 PUSH1 0x84 ADD PUSH1 0x0 PUSH1 0x40 MLOAD DUP1 DUP4 SUB DUP2 PUSH1 0x0 DUP8 DUP1 EXTCODESIZE ISZERO DUP1 ISZERO PUSH2 0x1AD2 JUMPI PUSH1 0x0 DUP1 REVERT JUMPDEST POP GAS CALL ISZERO DUP1 ISZERO PUSH2 0x1AE6 JUMPI RETURNDATASIZE PUSH1 0x0 DUP1 RETURNDATACOPY RETURNDATASIZE PUSH1 0x0 REVERT JUMPDEST POP POP PUSH1 0x40 DUP1 MLOAD DUP6 DUP2 MSTORE TIMESTAMP PUSH1 0x20 DUP3 ADD MSTORE PUSH1 0x1 PUSH1 0x1 PUSH1 0xA0 SHL SUB DUP8 AND SWAP4 POP PUSH32 0x680CED0659081951851F602E5058366495E8D26C37F03A2059BDD7BDA05B554A SWAP3 POP ADD PUSH1 0x40 MLOAD DUP1 SWAP2 SUB SWAP1 LOG2 POP PUSH2 0xB4D PUSH1 0x1 PUSH1 0x0 SSTORE JUMP JUMPDEST PUSH2 0x1B40 PUSH2 0x1B76 JUMP JUMPDEST PUSH1 0x1 PUSH1 0x1 PUSH1 0xA0 SHL SUB DUP2 AND PUSH2 0x1B6A JUMPI PUSH1 0x40 MLOAD PUSH4 0x1E4FBDF7 PUSH1 0xE0 SHL DUP2 MSTORE PUSH1 0x0 PUSH1 0x4 DUP3 ADD MSTORE PUSH1 0x24 ADD PUSH2 0x6B3 JUMP JUMPDEST PUSH2 0x1B73 DUP2 PUSH2 0x1C34 JUMP JUMPDEST POP JUMP JUMPDEST PUSH1 0x1 SLOAD PUSH1 0x1 PUSH1 0x1 PUSH1 0xA0 SHL SUB AND CALLER EQ PUSH2 0x139E JUMPI PUSH1 0x40 MLOAD PUSH4 0x118CDAA7 PUSH1 0xE0 SHL DUP2 MSTORE CALLER PUSH1 0x4 DUP3 ADD MSTORE PUSH1 0x24 ADD PUSH2 0x6B3 JUMP JUMPDEST PUSH1 0x2 PUSH1 0x0 SLOAD SUB PUSH2 0x1BC6 JUMPI PUSH1 0x40 MLOAD PUSH4 0x3EE5AEB5 PUSH1 0xE0 SHL DUP2 MSTORE PUSH1 0x4 ADD PUSH1 0x40 MLOAD DUP1 SWAP2 SUB SWAP1 REVERT JUMPDEST PUSH1 0x2 PUSH1 0x0 SSTORE JUMP JUMPDEST PUSH1 0x40 MLOAD PUSH1 0x1 PUSH1 0x1 PUSH1 0xA0 SHL SUB DUP5 DUP2 AND PUSH1 0x24 DUP4 ADD MSTORE DUP4 DUP2 AND PUSH1 0x44 DUP4 ADD MSTORE PUSH1 0x64 DUP3 ADD DUP4 SWAP1 MSTORE PUSH2 0x1729 SWAP2 DUP7 SWAP2 DUP3 AND SWAP1 PUSH4 0x23B872DD SWAP1 PUSH1 0x84 ADD JUMPDEST PUSH1 0x40 MLOAD PUSH1 0x20 DUP2 DUP4 SUB SUB DUP2 MSTORE SWAP1 PUSH1 0x40 MSTORE SWAP2 POP PUSH1 0xE0 SHL PUSH1 0x20 DUP3 ADD DUP1 MLOAD PUSH1 0x1 PUSH1 0x1 PUSH1 0xE0 SHL SUB DUP4 DUP2 DUP4 AND OR DUP4 MSTORE POP POP POP POP PUSH2 0x1CB7 JUMP JUMPDEST PUSH1 0x1 DUP1 SLOAD PUSH1 0x1 PUSH1 0x1 PUSH1 0xA0 SHL SUB DUP4 DUP2 AND PUSH1 0x1 PUSH1 0x1 PUSH1 0xA0 SHL SUB NOT DUP4 AND DUP2 OR SWAP1 SWAP4 SSTORE PUSH1 0x40 MLOAD SWAP2 AND SWAP2 SWAP1 DUP3 SWAP1 PUSH32 0x8BE0079C531659141344CD1FD0A4F28419497F9722A3DAAFE3B4186F6B6457E0 SWAP1 PUSH1 0x0 SWAP1 LOG3 POP POP JUMP JUMPDEST PUSH1 0x40 MLOAD PUSH1 0x1 PUSH1 0x1 PUSH1 0xA0 SHL SUB DUP4 DUP2 AND PUSH1 0x24 DUP4 ADD MSTORE PUSH1 0x44 DUP3 ADD DUP4 SWAP1 MSTORE PUSH2 0x756 SWAP2 DUP6 SWAP2 DUP3 AND SWAP1 PUSH4 0xA9059CBB SWAP1 PUSH1 0x64 ADD PUSH2 0x1C02 JUMP JUMPDEST PUSH1 0x0 DUP1 PUSH1 0x20 PUSH1 0x0 DUP5 MLOAD PUSH1 0x20 DUP7 ADD PUSH1 0x0 DUP9 GAS CALL DUP1 PUSH2 0x1CDA JUMPI PUSH1 0x40 MLOAD RETURNDATASIZE PUSH1 0x0 DUP3 RETURNDATACOPY RETURNDATASIZE DUP2 REVERT JUMPDEST POP POP PUSH1 0x0 MLOAD RETURNDATASIZE SWAP2 POP DUP2 ISZERO PUSH2 0x1CF2 JUMPI DUP1 PUSH1 0x1 EQ ISZERO PUSH2 0x1CFF JUMP JUMPDEST PUSH1 0x1 PUSH1 0x1 PUSH1 0xA0 SHL SUB DUP5 AND EXTCODESIZE ISZERO JUMPDEST ISZERO PUSH2 0x1729 JUMPI PUSH1 0x40 MLOAD PUSH4 0x5274AFE7 PUSH1 0xE0 SHL DUP2 MSTORE PUSH1 0x1 PUSH1 0x1 PUSH1 0xA0 SHL SUB DUP6 AND PUSH1 0x4 DUP3 ADD MSTORE PUSH1 0x24 ADD PUSH2 0x6B3 JUMP JUMPDEST PUSH1 0x1 PUSH1 0x1 PUSH1 0xA0 SHL SUB DUP2 AND DUP2 EQ PUSH2 0x1B73 JUMPI PUSH1 0x0 DUP1 REVERT JUMPDEST PUSH1 0x0 DUP1 PUSH1 0x40 DUP4 DUP6 SUB SLT ISZERO PUSH2 0x1D50 JUMPI PUSH1 0x0 DUP1 REVERT JUMPDEST DUP3 CALLDATALOAD PUSH2 0x1D5B DUP2 PUSH2 0x1D28 JUMP JUMPDEST SWAP5 PUSH1 0x20 SWAP4 SWAP1 SWAP4 ADD CALLDATALOAD SWAP4 POP POP POP JUMP JUMPDEST PUSH1 0x0 PUSH1 0x20 DUP3 DUP5 SUB SLT ISZERO PUSH2 0x1D7B JUMPI PUSH1 0x0 DUP1 REVERT JUMPDEST DUP2 CALLDATALOAD PUSH2 0x18B1 DUP2 PUSH2 0x1D28 JUMP JUMPDEST PUSH1 0x0 DUP1 PUSH1 0x0 PUSH1 0x60 DUP5 DUP7 SUB SLT ISZERO PUSH2 0x1D9B JUMPI PUSH1 0x0 DUP1 REVERT JUMPDEST DUP4 CALLDATALOAD PUSH2 0x1DA6 DUP2 PUSH2 0x1D28 JUMP JUMPDEST SWAP6 PUSH1 0x20 DUP6 ADD CALLDATALOAD SWAP6 POP PUSH1 0x40 SWAP1 SWAP5 ADD CALLDATALOAD SWAP4 SWAP3 POP POP POP JUMP JUMPDEST PUSH1 0x0 DUP1 PUSH1 0x0 DUP1 PUSH1 0x80 DUP6 DUP8 SUB SLT ISZERO PUSH2 0x1DD1 JUMPI PUSH1 0x0 DUP1 REVERT JUMPDEST DUP5 CALLDATALOAD PUSH2 0x1DDC DUP2 PUSH2 0x1D28 JUMP JUMPDEST SWAP7 PUSH1 0x20 DUP7 ADD CALLDATALOAD SWAP7 POP PUSH1 0x40 DUP7 ADD CALLDATALOAD SWAP6 PUSH1 0x60 ADD CALLDATALOAD SWAP5 POP SWAP3 POP POP POP JUMP JUMPDEST PUSH1 0x0 DUP1 PUSH1 0x40 DUP4 DUP6 SUB SLT ISZERO PUSH2 0x1E09 JUMPI PUSH1 0x0 DUP1 REVERT JUMPDEST DUP3 CALLDATALOAD PUSH2 0x1E14 DUP2 PUSH2 0x1D28 JUMP JUMPDEST SWAP2 POP PUSH1 0x20 DUP4 ADD CALLDATALOAD PUSH2 0x1E24 DUP2 PUSH2 0x1D28 JUMP JUMPDEST DUP1 SWAP2 POP POP SWAP3 POP SWAP3 SWAP1 POP JUMP JUMPDEST PUSH1 0x0 DUP1 PUSH1 0x0 PUSH1 0x60 DUP5 DUP7 SUB SLT ISZERO PUSH2 0x1E44 JUMPI PUSH1 0x0 DUP1 REVERT JUMPDEST DUP4 CALLDATALOAD PUSH2 0x1E4F DUP2 PUSH2 0x1D28 JUMP JUMPDEST SWAP3 POP PUSH1 0x20 DUP5 ADD CALLDATALOAD PUSH2 0x1E5F DUP2 PUSH2 0x1D28 JUMP JUMPDEST SWAP3 SWAP6 SWAP3 SWAP5 POP POP POP PUSH1 0x40 SWAP2 SWAP1 SWAP2 ADD CALLDATALOAD SWAP1 JUMP JUMPDEST PUSH1 0x0 PUSH1 0x20 DUP3 DUP5 SUB SLT ISZERO PUSH2 0x1E82 JUMPI PUSH1 0x0 DUP1 REVERT JUMPDEST POP MLOAD SWAP2 SWAP1 POP JUMP JUMPDEST PUSH1 0x20 DUP1 DUP3 MSTORE PUSH1 0x1C SWAP1 DUP3 ADD MSTORE PUSH32 0x4E6F7420617574686F72697A656420666F722074686973207573657200000000 PUSH1 0x40 DUP3 ADD MSTORE PUSH1 0x60 ADD SWAP1 JUMP JUMPDEST PUSH1 0x20 DUP1 DUP3 MSTORE PUSH1 0x1D SWAP1 DUP3 ADD MSTORE PUSH32 0x416D6F756E74206D7573742062652067726561746572207468616E2030000000 PUSH1 0x40 DUP3 ADD MSTORE PUSH1 0x60 ADD SWAP1 JUMP JUMPDEST PUSH1 0x20 DUP1 DUP3 MSTORE PUSH1 0x1A SWAP1 DUP3 ADD MSTORE PUSH32 0x496E73756666696369656E7420657865637574696F6E20666565000000000000 PUSH1 0x40 DUP3 ADD MSTORE PUSH1 0x60 ADD SWAP1 JUMP JUMPDEST PUSH4 0x4E487B71 PUSH1 0xE0 SHL PUSH1 0x0 MSTORE PUSH1 0x21 PUSH1 0x4 MSTORE PUSH1 0x24 PUSH1 0x0 REVERT JUMPDEST PUSH1 0x0 PUSH1 0xE0 DUP4 ADD PUSH1 0x1 DUP1 PUSH1 0xA0 SHL SUB DUP1 DUP5 MLOAD AND DUP6 MSTORE PUSH1 0x20 DUP2 DUP2 DUP7 ADD MLOAD AND DUP2 DUP8 ADD MSTORE DUP2 PUSH1 0x40 DUP7 ADD MLOAD AND PUSH1 0x40 DUP8 ADD MSTORE DUP2 PUSH1 0x60 DUP7 ADD MLOAD AND PUSH1 0x60 DUP8 ADD MSTORE DUP2 PUSH1 0x80 DUP7 ADD MLOAD AND PUSH1 0x80 DUP8 ADD MSTORE DUP2 PUSH1 0xA0 DUP7 ADD MLOAD AND PUSH1 0xA0 DUP8 ADD MSTORE PUSH1 0xC0 DUP6 ADD MLOAD PUSH1 0xE0 PUSH1 0xC0 DUP9 ADD MSTORE DUP4 DUP2 MLOAD DUP1 DUP7 MSTORE PUSH2 0x100 DUP10 ADD SWAP2 POP DUP4 DUP4 ADD SWAP6 POP PUSH1 0x0 SWAP3 POP JUMPDEST DUP1 DUP4 LT ISZERO PUSH2 0x1FD8 JUMPI DUP6 MLOAD DUP6 AND DUP3 MSTORE SWAP5 DUP4 ADD SWAP5 PUSH1 0x1 SWAP3 SWAP1 SWAP3 ADD SWAP2 SWAP1 DUP4 ADD SWAP1 PUSH2 0x1FB6 JUMP JUMPDEST POP SWAP8 SWAP7 POP POP POP POP POP POP POP JUMP JUMPDEST PUSH1 0x8 DUP2 LT PUSH2 0x1FF4 JUMPI PUSH2 0x1FF4 PUSH2 0x1F2E JUMP JUMPDEST SWAP1 MSTORE JUMP JUMPDEST PUSH1 0x3 DUP2 LT PUSH2 0x1FF4 JUMPI PUSH2 0x1FF4 PUSH2 0x1F2E JUMP JUMPDEST PUSH1 0x20 DUP2 MSTORE PUSH1 0x0 DUP3 MLOAD PUSH2 0x1E0 DUP1 PUSH1 0x20 DUP6 ADD MSTORE PUSH2 0x2027 PUSH2 0x200 DUP6 ADD DUP4 PUSH2 0x1F44 JUMP JUMPDEST SWAP2 POP PUSH1 0x20 DUP6 ADD MLOAD PUSH2 0x2084 PUSH1 0x40 DUP7 ADD DUP3 DUP1 MLOAD DUP3 MSTORE PUSH1 0x20 DUP2 ADD MLOAD PUSH1 0x20 DUP4 ADD MSTORE PUSH1 0x40 DUP2 ADD MLOAD PUSH1 0x40 DUP4 ADD MSTORE PUSH1 0x60 DUP2 ADD MLOAD PUSH1 0x60 DUP4 ADD MSTORE PUSH1 0x80 DUP2 ADD MLOAD PUSH1 0x80 DUP4 ADD MSTORE PUSH1 0xA0 DUP2 ADD MLOAD PUSH1 0xA0 DUP4 ADD MSTORE PUSH1 0xC0 DUP2 ADD MLOAD PUSH1 0xC0 DUP4 ADD MSTORE PUSH1 0xE0 DUP2 ADD MLOAD PUSH1 0xE0 DUP4 ADD MSTORE POP POP JUMP JUMPDEST POP PUSH1 0x40 DUP6 ADD MLOAD PUSH2 0x2098 PUSH2 0x140 DUP7 ADD DUP3 PUSH2 0x1FE4 JUMP JUMPDEST POP PUSH1 0x60 DUP6 ADD MLOAD PUSH2 0x20AC PUSH2 0x160 DUP7 ADD DUP3 PUSH2 0x1FF8 JUMP JUMPDEST POP PUSH1 0x80 DUP6 ADD MLOAD ISZERO ISZERO PUSH2 0x180 DUP6 ADD MSTORE PUSH1 0xA0 DUP6 ADD MLOAD ISZERO ISZERO PUSH2 0x1A0 DUP6 ADD MSTORE PUSH1 0xC0 DUP6 ADD MLOAD ISZERO ISZERO PUSH2 0x1C0 DUP6 ADD MSTORE PUSH1 0xE0 SWAP1 SWAP5 ADD MLOAD SWAP4 SWAP1 SWAP3 ADD SWAP3 SWAP1 SWAP3 MSTORE SWAP2 SWAP1 POP JUMP JUMPDEST PUSH1 0x0 DUP3 PUSH2 0x2104 JUMPI PUSH4 0x4E487B71 PUSH1 0xE0 SHL PUSH1 0x0 MSTORE PUSH1 0x12 PUSH1 0x4 MSTORE PUSH1 0x24 PUSH1 0x0 REVERT JUMPDEST POP DIV SWAP1 JUMP INVALID LOG2 PUSH5 0x6970667358 0x22 SLT KECCAK256 SELFBALANCE DUP15 PUSH24 0x7959C1812667923AECEFC9C0E627766719ED22A8DF11A382 DUP12 ADDMOD DUP10 PUSH27 0x1B64736F6C63430008140033000000000000000000000000000000 "},"methodIdentifiers":{"AAVE_POOL()":"08a01675","BTC_TOKEN()":"789fc9ad","GMX_BTC_MARKET()":"f744c2a5","GMX_EXCHANGE_ROUTER()":"4e57f9c8","GMX_ORDER_VAULT()":"a454e328","GMX_ROUTER()":"562a97e5","USDC()":"89a30271","WAVAX()":"73b295c2","aUSDC()":"559fda33","addGmxCollateral(address,uint256,uint256)":"520f2f8b","authorizeManager()":"09fbff33","authorizeSpecificManager(address)":"ace75e65","authorizedManagers(address,address)":"cf327398","checkAuthorization(address)":"89f4dd47","closeGmxPosition(address,uint256,uint256)":"4eb86f78","depositToAave(address,uint256)":"eeb149e7","emergencyWithdraw(address,address,uint256)":"e63ea408","emergencyWithdrawAvax(address,uint256)":"068db003","executor()":"c34c08e5","getUserATokenAllowance(address)":"a9c3554d","getUserAllowance(address)":"0c6ddc0d","isAuthorized(address)":"fe9fbb80","isManagerAuthorized(address,address)":"cf740dd2","openGmxPosition(address,uint256,uint256,uint256)":"9908719d","owner()":"8da5cb5b","removeGmxCollateral(address,uint256,uint256)":"581e1b6b","renounceOwnership()":"715018a6","revokeAccess()":"4e4c7d9b","revokeSpecificManager(address)":"d5eb5a4c","setExecutor(address)":"1c3c0ea8","transferOwnership(address)":"f2fde38b","withdrawFromAave(address,uint256)":"487ede04"}}}}}